{
  "transactions": [
    {
      "hash": "0xc36a9ee102b95636f5aa2a3d2ba00306986740fa7b223286dd80923d1976599e",
      "transactionType": "CALL",
      "contractName": null,
      "contractAddress": "0xd011ee229e7459ba1ddd22631ef7bf528d424a14",
      "function": "borrow((address,address,address,address,uint256),uint256,uint256,address,address)",
      "arguments": [
        "(0x1b909218c474807550209a7E83875289004Ae969, 0xB4A6E570425295856E688323BEfE9529AAC84688, 0xBD10202762e1a5A56cec413C59265da14396fa5C, 0x8C5dDCD3F601c91D1BF51c8ec26066010ACAbA7c, 860000000000000000)",
        "1000000000000000000",
        "0",
        "0x2f63f292C01A179E06f5275Cfe3278C1Efa7A1A2",
        "0x2f63f292C01A179E06f5275Cfe3278C1Efa7A1A2"
      ],
      "transaction": {
        "from": "0x2f63f292c01a179e06f5275cfe3278c1efa7a1a2",
        "to": "0xd011ee229e7459ba1ddd22631ef7bf528d424a14",
        "gas": "0x244ad",
        "value": "0x0",
        "input": "0x50d8cd4b0000000000000000000000001b909218c474807550209a7e83875289004ae969000000000000000000000000b4a6e570425295856e688323befe9529aac84688000000000000000000000000bd10202762e1a5a56cec413c59265da14396fa5c0000000000000000000000008c5ddcd3f601c91d1bf51c8ec26066010acaba7c0000000000000000000000000000000000000000000000000bef55718ad600000000000000000000000000000000000000000000000000000de0b6b3a764000000000000000000000000000000000000000000000000000000000000000000000000000000000000000000002f63f292c01a179e06f5275cfe3278c1efa7a1a20000000000000000000000002f63f292c01a179e06f5275cfe3278c1efa7a1a2",
        "nonce": "0x47",
        "chainId": "0xaa36a7"
      },
      "additionalContracts": [],
      "isFixedGasLimit": false
    }
  ],
  "receipts": [
    {
      "status": "0x1",
      "cumulativeGasUsed": "0x2214c91",
      "logs": [
        {
          "address": "0x8c5ddcd3f601c91d1bf51c8ec26066010acaba7c",
          "topics": [
            "0x7120161a7b3d31251e01294ab351ef15a41b91659a36032e4641bb89b121e321",
            "0x0761d379cc7d1212f71ad42bba304a80f1250baa0ad7a615a2501ac5f0e6ccb5"
          ],
          "data": "0x0000000000000000000000000000000000000000000000000000000038b1328f000000000000000000000000000000000000000000000000000000004b96af3f",
          "blockHash": "0x7f4d865d451aac2ba02284c7e6d7dfe73c044641fe0cfdc83a97a790f04b0491",
          "blockNumber": "0x8cef4a",
          "blockTimestamp": "0x68cd7c14",
          "transactionHash": "0xc36a9ee102b95636f5aa2a3d2ba00306986740fa7b223286dd80923d1976599e",
          "transactionIndex": "0x88",
          "logIndex": "0xf7",
          "removed": false
        },
        {
          "address": "0xd011ee229e7459ba1ddd22631ef7bf528d424a14",
          "topics": [
            "0x9d9bd501d0657d7dfe415f779a620a62b78bc508ddc0891fbbd8b7ac0f8fce87",
            "0x0761d379cc7d1212f71ad42bba304a80f1250baa0ad7a615a2501ac5f0e6ccb5"
          ],
          "data": "0x0000000000000000000000000000000000000000000000000000000038b1328f0000000000000000000000000000000000000000000000000000027dc979bcf80000000000000000000000000000000000000000000000000000000000000000",
          "blockHash": "0x7f4d865d451aac2ba02284c7e6d7dfe73c044641fe0cfdc83a97a790f04b0491",
          "blockNumber": "0x8cef4a",
          "blockTimestamp": "0x68cd7c14",
          "transactionHash": "0xc36a9ee102b95636f5aa2a3d2ba00306986740fa7b223286dd80923d1976599e",
          "transactionIndex": "0x88",
          "logIndex": "0xf8",
          "removed": false
        },
        {
          "address": "0xd011ee229e7459ba1ddd22631ef7bf528d424a14",
          "topics": [
            "0x570954540bed6b1304a87dfe815a5eda4a648f7097a16240dcd85c9b5fd42a43",
            "0x0761d379cc7d1212f71ad42bba304a80f1250baa0ad7a615a2501ac5f0e6ccb5",
            "0x0000000000000000000000002f63f292c01a179e06f5275cfe3278c1efa7a1a2",
            "0x0000000000000000000000002f63f292c01a179e06f5275cfe3278c1efa7a1a2"
          ],
          "data": "0x0000000000000000000000002f63f292c01a179e06f5275cfe3278c1efa7a1a20000000000000000000000000000000000000000000000000de0b6b3a764000000000000000000000000000000000000000000000000d3c21b2c9a568ce88450",
          "blockHash": "0x7f4d865d451aac2ba02284c7e6d7dfe73c044641fe0cfdc83a97a790f04b0491",
          "blockNumber": "0x8cef4a",
          "blockTimestamp": "0x68cd7c14",
          "transactionHash": "0xc36a9ee102b95636f5aa2a3d2ba00306986740fa7b223286dd80923d1976599e",
          "transactionIndex": "0x88",
          "logIndex": "0xf9",
          "removed": false
        },
        {
          "address": "0x1b909218c474807550209a7e83875289004ae969",
          "topics": [
            "0xddf252ad1be2c89b69c2b068fc378daa952ba7f163c4a11628f55a4df523b3ef",
            "0x000000000000000000000000d011ee229e7459ba1ddd22631ef7bf528d424a14",
            "0x0000000000000000000000002f63f292c01a179e06f5275cfe3278c1efa7a1a2"
          ],
          "data": "0x0000000000000000000000000000000000000000000000000de0b6b3a7640000",
          "blockHash": "0x7f4d865d451aac2ba02284c7e6d7dfe73c044641fe0cfdc83a97a790f04b0491",
          "blockNumber": "0x8cef4a",
          "blockTimestamp": "0x68cd7c14",
          "transactionHash": "0xc36a9ee102b95636f5aa2a3d2ba00306986740fa7b223286dd80923d1976599e",
          "transactionIndex": "0x88",
          "logIndex": "0xfa",
          "removed": false
        }
      ],
      "logsBloom": "0x00000000000000000002000000000000002000000000000000000000000000010000400000020000000000000000010000000000000000000000000020804000000000000000000000002008000000000000000000000000000000080000000000040800000000000000000000000000000200000000000000200010000000000000000000000000080000000000000000000000000000000000000000000800000000000000000000000000000000000008000000000000000000000000000000400002000000000000000000080000100000000000000000000000000000002000004000000008000000000001000000000000000004000800000000000000",
      "type": "0x2",
      "transactionHash": "0xc36a9ee102b95636f5aa2a3d2ba00306986740fa7b223286dd80923d1976599e",
      "transactionIndex": "0x88",
      "blockHash": "0x7f4d865d451aac2ba02284c7e6d7dfe73c044641fe0cfdc83a97a790f04b0491",
      "blockNumber": "0x8cef4a",
      "gasUsed": "0x1a467",
      "effectiveGasPrice": "0xf4548",
      "from": "0x2f63f292c01a179e06f5275cfe3278c1efa7a1a2",
      "to": "0xd011ee229e7459ba1ddd22631ef7bf528d424a14",
      "contractAddress": null
    }
  ],
  "libraries": [],
  "pending": [],
  "returns": {},
  "timestamp": 1758297110,
  "chain": 11155111,
  "commit": "9fa8e1a"
}