{
  "transactions": [
    {
      "hash": "0x840d9268ae900943c1a14da1681ab6af9757680b28e8f13e9602be33d41f3c6e",
      "transactionType": "CALL",
      "contractName": null,
      "contractAddress": "0x8a43989648f8b86349a4fe58aa2470261e4cfdfa",
      "function": "approve(address,uint256)",
      "arguments": [
        "0xe3F8380851ee3A0BBcedDD0bCDe92d423812C1Cd",
        "100000000000000000000"
      ],
      "transaction": {
        "from": "0x2f63f292c01a179e06f5275cfe3278c1efa7a1a2",
        "to": "0x8a43989648f8b86349a4fe58aa2470261e4cfdfa",
        "gas": "0xfa7a",
        "value": "0x0",
        "input": "0x095ea7b3000000000000000000000000e3f8380851ee3a0bbceddd0bcde92d423812c1cd0000000000000000000000000000000000000000000000056bc75e2d63100000",
        "nonce": "0x2b",
        "chainId": "0xdeadbfee"
      },
      "additionalContracts": [],
      "isFixedGasLimit": false
    },
    {
      "hash": "0x279cc6dd58fc615bc457c2e95d61d7a57edd8e44ff7b93e6b793026293ed7f34",
      "transactionType": "CALL",
      "contractName": null,
      "contractAddress": "0xdab3157df4e5561a14df721f0945cb9b49ab5506",
      "function": "approve(address,uint256)",
      "arguments": [
        "0xe3F8380851ee3A0BBcedDD0bCDe92d423812C1Cd",
        "50000000000000000000"
      ],
      "transaction": {
        "from": "0x2f63f292c01a179e06f5275cfe3278c1efa7a1a2",
        "to": "0xdab3157df4e5561a14df721f0945cb9b49ab5506",
        "gas": "0xfa7a",
        "value": "0x0",
        "input": "0x095ea7b3000000000000000000000000e3f8380851ee3a0bbceddd0bcde92d423812c1cd000000000000000000000000000000000000000000000002b5e3af16b1880000",
        "nonce": "0x2c",
        "chainId": "0xdeadbfee"
      },
      "additionalContracts": [],
      "isFixedGasLimit": false
    },
    {
      "hash": "0x5fb9321a02db8477bb81b9faa7da35f11fcbc00789252d2f1b019079941be5e4",
      "transactionType": "CALL",
      "contractName": null,
      "contractAddress": "0xe3f8380851ee3a0bbceddd0bcde92d423812c1cd",
      "function": "supply((address,address,address,address,uint256),uint256,uint256,address,bytes)",
      "arguments": [
        "(0x8a43989648F8b86349A4FE58Aa2470261e4CfdfA, 0xDAB3157dF4e5561a14DF721f0945Cb9B49Ab5506, 0x0878Af8BAa013f7f6C4687391993b4206b9cde57, 0x9F16Bf4ef111fC4cE7A75F9aB3a3e20CD9754c92, 800000000000000000)",
        "100000000000000000000",
        "0",
        "0x2f63f292C01A179E06f5275Cfe3278C1Efa7A1A2",
        "0x"
      ],
      "transaction": {
        "from": "0x2f63f292c01a179e06f5275cfe3278c1efa7a1a2",
        "to": "0xe3f8380851ee3a0bbceddd0bcde92d423812c1cd",
        "gas": "0x276aa",
        "value": "0x0",
        "input": "0xa99aad890000000000000000000000008a43989648f8b86349a4fe58aa2470261e4cfdfa000000000000000000000000dab3157df4e5561a14df721f0945cb9b49ab55060000000000000000000000000878af8baa013f7f6c4687391993b4206b9cde570000000000000000000000009f16bf4ef111fc4ce7a75f9ab3a3e20cd9754c920000000000000000000000000000000000000000000000000b1a2bc2ec5000000000000000000000000000000000000000000000000000056bc75e2d6310000000000000000000000000000000000000000000000000000000000000000000000000000000000000000000002f63f292c01a179e06f5275cfe3278c1efa7a1a200000000000000000000000000000000000000000000000000000000000001200000000000000000000000000000000000000000000000000000000000000000",
        "nonce": "0x2d",
        "chainId": "0xdeadbfee"
      },
      "additionalContracts": [],
      "isFixedGasLimit": false
    },
    {
      "hash": "0xd1ae642cfcc7b13e2653d1c83c3561fa035ad6e793516de88338e9d166a257d5",
      "transactionType": "CALL",
      "contractName": null,
      "contractAddress": "0xe3f8380851ee3a0bbceddd0bcde92d423812c1cd",
      "function": "supplyCollateral((address,address,address,address,uint256),uint256,address,bytes)",
      "arguments": [
        "(0x8a43989648F8b86349A4FE58Aa2470261e4CfdfA, 0xDAB3157dF4e5561a14DF721f0945Cb9B49Ab5506, 0x0878Af8BAa013f7f6C4687391993b4206b9cde57, 0x9F16Bf4ef111fC4cE7A75F9aB3a3e20CD9754c92, 800000000000000000)",
        "50000000000000000000",
        "0x2f63f292C01A179E06f5275Cfe3278C1Efa7A1A2",
        "0x"
      ],
      "transaction": {
        "from": "0x2f63f292c01a179e06f5275cfe3278c1efa7a1a2",
        "to": "0xe3f8380851ee3a0bbceddd0bcde92d423812c1cd",
        "gas": "0x19147",
        "value": "0x0",
        "input": "0x238d65790000000000000000000000008a43989648f8b86349a4fe58aa2470261e4cfdfa000000000000000000000000dab3157df4e5561a14df721f0945cb9b49ab55060000000000000000000000000878af8baa013f7f6c4687391993b4206b9cde570000000000000000000000009f16bf4ef111fc4ce7a75f9ab3a3e20cd9754c920000000000000000000000000000000000000000000000000b1a2bc2ec500000000000000000000000000000000000000000000000000002b5e3af16b18800000000000000000000000000002f63f292c01a179e06f5275cfe3278c1efa7a1a200000000000000000000000000000000000000000000000000000000000001000000000000000000000000000000000000000000000000000000000000000000",
        "nonce": "0x2e",
        "chainId": "0xdeadbfee"
      },
      "additionalContracts": [],
      "isFixedGasLimit": false
    },
    {
      "hash": "0x9c27ea4543f2da2556e6921c58ec43c37bc9000428e9ba57857d861e659ca492",
      "transactionType": "CALL",
      "contractName": null,
      "contractAddress": "0xe3f8380851ee3a0bbceddd0bcde92d423812c1cd",
      "function": "borrow((address,address,address,address,uint256),uint256,uint256,address,address)",
      "arguments": [
        "(0x8a43989648F8b86349A4FE58Aa2470261e4CfdfA, 0xDAB3157dF4e5561a14DF721f0945Cb9B49Ab5506, 0x0878Af8BAa013f7f6C4687391993b4206b9cde57, 0x9F16Bf4ef111fC4cE7A75F9aB3a3e20CD9754c92, 800000000000000000)",
        "60000000000000000000",
        "0",
        "0x2f63f292C01A179E06f5275Cfe3278C1Efa7A1A2",
        "0x2f63f292C01A179E06f5275Cfe3278C1Efa7A1A2"
      ],
      "transaction": {
        "from": "0x2f63f292c01a179e06f5275cfe3278c1efa7a1a2",
        "to": "0xe3f8380851ee3a0bbceddd0bcde92d423812c1cd",
        "gas": "0x1d8a5",
        "value": "0x0",
        "input": "0x50d8cd4b0000000000000000000000008a43989648f8b86349a4fe58aa2470261e4cfdfa000000000000000000000000dab3157df4e5561a14df721f0945cb9b49ab55060000000000000000000000000878af8baa013f7f6c4687391993b4206b9cde570000000000000000000000009f16bf4ef111fc4ce7a75f9ab3a3e20cd9754c920000000000000000000000000000000000000000000000000b1a2bc2ec50000000000000000000000000000000000000000000000000000340aad21b3b70000000000000000000000000000000000000000000000000000000000000000000000000000000000000000000002f63f292c01a179e06f5275cfe3278c1efa7a1a20000000000000000000000002f63f292c01a179e06f5275cfe3278c1efa7a1a2",
        "nonce": "0x2f",
        "chainId": "0xdeadbfee"
      },
      "additionalContracts": [],
      "isFixedGasLimit": false
    }
  ],
  "receipts": [
    {
      "status": "0x1",
      "cumulativeGasUsed": "0xb558",
      "logs": [
        {
          "address": "0x8a43989648f8b86349a4fe58aa2470261e4cfdfa",
          "topics": [
            "0x8c5be1e5ebec7d5bd14f71427d1e84f3dd0314c0f7b2291e5b200ac8c7c3b925",
            "0x0000000000000000000000002f63f292c01a179e06f5275cfe3278c1efa7a1a2",
            "0x000000000000000000000000e3f8380851ee3a0bbceddd0bcde92d423812c1cd"
          ],
          "data": "0x0000000000000000000000000000000000000000000000056bc75e2d63100000",
          "blockHash": "0x83520956ac8b1d7ae24328443239122436849addbc6ebe920bbba467ce0ee493",
          "blockNumber": "0x51bb1b",
          "blockTimestamp": "0x68e91ec2",
          "transactionHash": "0x840d9268ae900943c1a14da1681ab6af9757680b28e8f13e9602be33d41f3c6e",
          "transactionIndex": "0x0",
          "logIndex": "0x0",
          "removed": false
        }
      ],
      "logsBloom": "0x00000000000000000000000000000002000000000000000000000000000000000000000000020000000000000000000000000000000000000000000000200000000000000000000000000000000000000000020000000000000000000000000000000000000000000000000000000000000000000000000000000001000000000000000000000000000000000000000000000000000000000000000000000800020000000000000002000000000000000000000000000000000000000000000000000000000000000000001000000000000000000000000000000000000000000010400000000000000000000000000000000000000004000000000000000000",
      "type": "0x2",
      "transactionHash": "0x840d9268ae900943c1a14da1681ab6af9757680b28e8f13e9602be33d41f3c6e",
      "transactionIndex": "0x0",
      "blockHash": "0x83520956ac8b1d7ae24328443239122436849addbc6ebe920bbba467ce0ee493",
      "blockNumber": "0x51bb1b",
      "gasUsed": "0xb558",
      "effectiveGasPrice": "0x8",
      "from": "0x2f63f292c01a179e06f5275cfe3278c1efa7a1a2",
      "to": "0x8a43989648f8b86349a4fe58aa2470261e4cfdfa",
      "contractAddress": null
    },
    {
      "status": "0x1",
      "cumulativeGasUsed": "0x16ab0",
      "logs": [
        {
          "address": "0xdab3157df4e5561a14df721f0945cb9b49ab5506",
          "topics": [
            "0x8c5be1e5ebec7d5bd14f71427d1e84f3dd0314c0f7b2291e5b200ac8c7c3b925",
            "0x0000000000000000000000002f63f292c01a179e06f5275cfe3278c1efa7a1a2",
            "0x000000000000000000000000e3f8380851ee3a0bbceddd0bcde92d423812c1cd"
          ],
          "data": "0x000000000000000000000000000000000000000000000002b5e3af16b1880000",
          "blockHash": "0x83520956ac8b1d7ae24328443239122436849addbc6ebe920bbba467ce0ee493",
          "blockNumber": "0x51bb1b",
          "blockTimestamp": "0x68e91ec2",
          "transactionHash": "0x279cc6dd58fc615bc457c2e95d61d7a57edd8e44ff7b93e6b793026293ed7f34",
          "transactionIndex": "0x1",
          "logIndex": "0x1",
          "removed": false
        }
      ],
      "logsBloom": "0x00000000000000000000000000000000000000000000000000000000000000000000000000020000000000000000000000000000000000080000000000200000000000000000000000000000000000000000020000000000000000000000000000000000000000000000000100000000000000000000000000000000000000000000000000000000000000000000000000000000000000000000000000000800020000000000000802000000000000000000000000000000000000000000000000000000000000000000000000000000000000000000000000000000000000000010400000000000000000000000000000000000000004000000000000000000",
      "type": "0x2",
      "transactionHash": "0x279cc6dd58fc615bc457c2e95d61d7a57edd8e44ff7b93e6b793026293ed7f34",
      "transactionIndex": "0x1",
      "blockHash": "0x83520956ac8b1d7ae24328443239122436849addbc6ebe920bbba467ce0ee493",
      "blockNumber": "0x51bb1b",
      "gasUsed": "0xb558",
      "effectiveGasPrice": "0x8",
      "from": "0x2f63f292c01a179e06f5275cfe3278c1efa7a1a2",
      "to": "0xdab3157df4e5561a14df721f0945cb9b49ab5506",
      "contractAddress": null
    },
    {
      "status": "0x1",
      "cumulativeGasUsed": "0x319ea",
      "logs": [
        {
          "address": "0xe3f8380851ee3a0bbceddd0bcde92d423812c1cd",
          "topics": [
            "0x9d9bd501d0657d7dfe415f779a620a62b78bc508ddc0891fbbd8b7ac0f8fce87",
            "0x75f28b20c33eb6a853c3bb8fb6bae1b3902f6941ad4f1ebea4b245c00541e95d"
          ],
          "data": "0x000000000000000000000000000000000000000000000000000000000000000000000000000000000000000000000000000000000000000000000000000000000000000000000000000000000000000000000000000000000000000000000000",
          "blockHash": "0x83520956ac8b1d7ae24328443239122436849addbc6ebe920bbba467ce0ee493",
          "blockNumber": "0x51bb1b",
          "blockTimestamp": "0x68e91ec2",
          "transactionHash": "0x5fb9321a02db8477bb81b9faa7da35f11fcbc00789252d2f1b019079941be5e4",
          "transactionIndex": "0x2",
          "logIndex": "0x2",
          "removed": false
        },
        {
          "address": "0xe3f8380851ee3a0bbceddd0bcde92d423812c1cd",
          "topics": [
            "0xedf8870433c83823eb071d3df1caa8d008f12f6440918c20d75a3602cda30fe0",
            "0x75f28b20c33eb6a853c3bb8fb6bae1b3902f6941ad4f1ebea4b245c00541e95d",
            "0x0000000000000000000000002f63f292c01a179e06f5275cfe3278c1efa7a1a2",
            "0x0000000000000000000000002f63f292c01a179e06f5275cfe3278c1efa7a1a2"
          ],
          "data": "0x0000000000000000000000000000000000000000000000056bc75e2d6310000000000000000000000000000000000000000000000052b7d2dcc80cd2e4000000",
          "blockHash": "0x83520956ac8b1d7ae24328443239122436849addbc6ebe920bbba467ce0ee493",
          "blockNumber": "0x51bb1b",
          "blockTimestamp": "0x68e91ec2",
          "transactionHash": "0x5fb9321a02db8477bb81b9faa7da35f11fcbc00789252d2f1b019079941be5e4",
          "transactionIndex": "0x2",
          "logIndex": "0x3",
          "removed": false
        },
        {
          "address": "0x8a43989648f8b86349a4fe58aa2470261e4cfdfa",
          "topics": [
            "0xddf252ad1be2c89b69c2b068fc378daa952ba7f163c4a11628f55a4df523b3ef",
            "0x0000000000000000000000002f63f292c01a179e06f5275cfe3278c1efa7a1a2",
            "0x000000000000000000000000e3f8380851ee3a0bbceddd0bcde92d423812c1cd"
          ],
          "data": "0x0000000000000000000000000000000000000000000000056bc75e2d63100000",
          "blockHash": "0x83520956ac8b1d7ae24328443239122436849addbc6ebe920bbba467ce0ee493",
          "blockNumber": "0x51bb1b",
          "blockTimestamp": "0x68e91ec2",
          "transactionHash": "0x5fb9321a02db8477bb81b9faa7da35f11fcbc00789252d2f1b019079941be5e4",
          "transactionIndex": "0x2",
          "logIndex": "0x4",
          "removed": false
        }
      ],
      "logsBloom": "0x00000000000000000000000000000002000000000000000000008000000000000000400000020000000000000012000000000000000000000000002020000000000000000000000000000008800000000000020800000000000000080000000000000000000000000000000000000000000000000000000000000011000000000000000000000000000000000000000000000000000000000000000000000800000000000000000002000000000000000000000000000000000000000000000000000002004004000000001000000000000000000000000000000000000000400000400000000000000000000000000000000000000004000000000000000000",
      "type": "0x2",
      "transactionHash": "0x5fb9321a02db8477bb81b9faa7da35f11fcbc00789252d2f1b019079941be5e4",
      "transactionIndex": "0x2",
      "blockHash": "0x83520956ac8b1d7ae24328443239122436849addbc6ebe920bbba467ce0ee493",
      "blockNumber": "0x51bb1b",
      "gasUsed": "0x1af3a",
      "effectiveGasPrice": "0x8",
      "from": "0x2f63f292c01a179e06f5275cfe3278c1efa7a1a2",
      "to": "0xe3f8380851ee3a0bbceddd0bcde92d423812c1cd",
      "contractAddress": null
    },
    {
      "status": "0x1",
      "cumulativeGasUsed": "0x42c4b",
      "logs": [
        {
          "address": "0xe3f8380851ee3a0bbceddd0bcde92d423812c1cd",
          "topics": [
            "0xa3b9472a1399e17e123f3c2e6586c23e504184d504de59cdaa2b375e880c6184",
            "0x75f28b20c33eb6a853c3bb8fb6bae1b3902f6941ad4f1ebea4b245c00541e95d",
            "0x0000000000000000000000002f63f292c01a179e06f5275cfe3278c1efa7a1a2",
            "0x0000000000000000000000002f63f292c01a179e06f5275cfe3278c1efa7a1a2"
          ],
          "data": "0x000000000000000000000000000000000000000000000002b5e3af16b1880000",
          "blockHash": "0x83520956ac8b1d7ae24328443239122436849addbc6ebe920bbba467ce0ee493",
          "blockNumber": "0x51bb1b",
          "blockTimestamp": "0x68e91ec2",
          "transactionHash": "0xd1ae642cfcc7b13e2653d1c83c3561fa035ad6e793516de88338e9d166a257d5",
          "transactionIndex": "0x3",
          "logIndex": "0x5",
          "removed": false
        },
        {
          "address": "0xdab3157df4e5561a14df721f0945cb9b49ab5506",
          "topics": [
            "0xddf252ad1be2c89b69c2b068fc378daa952ba7f163c4a11628f55a4df523b3ef",
            "0x0000000000000000000000002f63f292c01a179e06f5275cfe3278c1efa7a1a2",
            "0x000000000000000000000000e3f8380851ee3a0bbceddd0bcde92d423812c1cd"
          ],
          "data": "0x000000000000000000000000000000000000000000000002b5e3af16b1880000",
          "blockHash": "0x83520956ac8b1d7ae24328443239122436849addbc6ebe920bbba467ce0ee493",
          "blockNumber": "0x51bb1b",
          "blockTimestamp": "0x68e91ec2",
          "transactionHash": "0xd1ae642cfcc7b13e2653d1c83c3561fa035ad6e793516de88338e9d166a257d5",
          "transactionIndex": "0x3",
          "logIndex": "0x6",
          "removed": false
        }
      ],
      "logsBloom": "0x00000000000000000000000000000000000000000000000000008000000000000000000000020000000000000012000000000000000000080000002000000000000000000000000000000008000000000000020000000000000000000000000000000000000000000000000100000000000000000000000000000010000000000000008000000000000000000000000000000000000000000000000000000800000000000000000802000000000000000000000000000000000000000000000000000002004004000000000000000000000000000000000400000000000000000000400000000000000000000000200000000000000004000000000000000000",
      "type": "0x2",
      "transactionHash": "0xd1ae642cfcc7b13e2653d1c83c3561fa035ad6e793516de88338e9d166a257d5",
      "transactionIndex": "0x3",
      "blockHash": "0x83520956ac8b1d7ae24328443239122436849addbc6ebe920bbba467ce0ee493",
      "blockNumber": "0x51bb1b",
      "gasUsed": "0x11261",
      "effectiveGasPrice": "0x8",
      "from": "0x2f63f292c01a179e06f5275cfe3278c1efa7a1a2",
      "to": "0xe3f8380851ee3a0bbceddd0bcde92d423812c1cd",
      "contractAddress": null
    },
    {
      "status": "0x1",
      "cumulativeGasUsed": "0x5827b",
      "logs": [
        {
          "address": "0xe3f8380851ee3a0bbceddd0bcde92d423812c1cd",
          "topics": [
            "0x570954540bed6b1304a87dfe815a5eda4a648f7097a16240dcd85c9b5fd42a43",
            "0x75f28b20c33eb6a853c3bb8fb6bae1b3902f6941ad4f1ebea4b245c00541e95d",
            "0x0000000000000000000000002f63f292c01a179e06f5275cfe3278c1efa7a1a2",
            "0x0000000000000000000000002f63f292c01a179e06f5275cfe3278c1efa7a1a2"
          ],
          "data": "0x0000000000000000000000002f63f292c01a179e06f5275cfe3278c1efa7a1a200000000000000000000000000000000000000000000000340aad21b3b70000000000000000000000000000000000000000000000031a17e847807b1bc000000",
          "blockHash": "0x83520956ac8b1d7ae24328443239122436849addbc6ebe920bbba467ce0ee493",
          "blockNumber": "0x51bb1b",
          "blockTimestamp": "0x68e91ec2",
          "transactionHash": "0x9c27ea4543f2da2556e6921c58ec43c37bc9000428e9ba57857d861e659ca492",
          "transactionIndex": "0x4",
          "logIndex": "0x7",
          "removed": false
        },
        {
          "address": "0x8a43989648f8b86349a4fe58aa2470261e4cfdfa",
          "topics": [
            "0xddf252ad1be2c89b69c2b068fc378daa952ba7f163c4a11628f55a4df523b3ef",
            "0x000000000000000000000000e3f8380851ee3a0bbceddd0bcde92d423812c1cd",
            "0x0000000000000000000000002f63f292c01a179e06f5275cfe3278c1efa7a1a2"
          ],
          "data": "0x00000000000000000000000000000000000000000000000340aad21b3b700000",
          "blockHash": "0x83520956ac8b1d7ae24328443239122436849addbc6ebe920bbba467ce0ee493",
          "blockNumber": "0x51bb1b",
          "blockTimestamp": "0x68e91ec2",
          "transactionHash": "0x9c27ea4543f2da2556e6921c58ec43c37bc9000428e9ba57857d861e659ca492",
          "transactionIndex": "0x4",
          "logIndex": "0x8",
          "removed": false
        }
      ],
      "logsBloom": "0x00000000000000000002000000000002000000000000000000008000000000000000000000020000000000000012000000000000000000000000002000000000000000000000000000000008000000000000020000000000000000000000000000000000000000000000000000000000000000000000000000000011000000000000000000000000000000000000000000000000000000000000000000000800000000000000000002000000000000000000000000000000000000000000000000000002004004000000001000000000000000000000000000000000000000000000404000000008000000000000000000000000000004000000000000000000",
      "type": "0x2",
      "transactionHash": "0x9c27ea4543f2da2556e6921c58ec43c37bc9000428e9ba57857d861e659ca492",
      "transactionIndex": "0x4",
      "blockHash": "0x83520956ac8b1d7ae24328443239122436849addbc6ebe920bbba467ce0ee493",
      "blockNumber": "0x51bb1b",
      "gasUsed": "0x15630",
      "effectiveGasPrice": "0x8",
      "from": "0x2f63f292c01a179e06f5275cfe3278c1efa7a1a2",
      "to": "0xe3f8380851ee3a0bbceddd0bcde92d423812c1cd",
      "contractAddress": null
    }
  ],
  "libraries": [],
  "pending": [],
  "returns": {},
  "timestamp": 1760108227756,
  "chain": 3735928814,
  "commit": "b6fb363"
}