{
  "transactions": [
    {
      "hash": "0x1a6a8d50fdc9c430e55d31592a4e4dfcb4051c1cb84c1d2b48d9b27d79a86586",
      "transactionType": "CALL",
      "contractName": null,
      "contractAddress": "0x1b909218c474807550209a7e83875289004ae969",
      "function": "approve(address,uint256)",
      "arguments": [
        "0xd011EE229E7459ba1ddd22631eF7bF528d424A14",
        "100000000000000000000"
      ],
      "transaction": {
        "from": "0x2f63f292c01a179e06f5275cfe3278c1efa7a1a2",
        "to": "0x1b909218c474807550209a7e83875289004ae969",
        "gas": "0xfa7a",
        "value": "0x0",
        "input": "0x095ea7b3000000000000000000000000d011ee229e7459ba1ddd22631ef7bf528d424a140000000000000000000000000000000000000000000000056bc75e2d63100000",
        "nonce": "0x42",
        "chainId": "0xaa36a7"
      },
      "additionalContracts": [],
      "isFixedGasLimit": false
    },
    {
      "hash": "0x742013e1f6e48b14b0db5b807a8bcb6e2824987ab09726a910d5f89b6b984b99",
      "transactionType": "CALL",
      "contractName": null,
      "contractAddress": "0xb4a6e570425295856e688323befe9529aac84688",
      "function": "approve(address,uint256)",
      "arguments": [
        "0xd011EE229E7459ba1ddd22631eF7bF528d424A14",
        "50000000000000000000"
      ],
      "transaction": {
        "from": "0x2f63f292c01a179e06f5275cfe3278c1efa7a1a2",
        "to": "0xb4a6e570425295856e688323befe9529aac84688",
        "gas": "0xfa7a",
        "value": "0x0",
        "input": "0x095ea7b3000000000000000000000000d011ee229e7459ba1ddd22631ef7bf528d424a14000000000000000000000000000000000000000000000002b5e3af16b1880000",
        "nonce": "0x43",
        "chainId": "0xaa36a7"
      },
      "additionalContracts": [],
      "isFixedGasLimit": false
    },
    {
      "hash": "0x53560b4cfd0dc70c67a88f57f9acde4f1b08b8c726db99707637189855ba9038",
      "transactionType": "CALL",
      "contractName": null,
      "contractAddress": "0xd011ee229e7459ba1ddd22631ef7bf528d424a14",
      "function": "supply((address,address,address,address,uint256),uint256,uint256,address,bytes)",
      "arguments": [
        "(0x1b909218c474807550209a7E83875289004Ae969, 0xB4A6E570425295856E688323BEfE9529AAC84688, 0xBD10202762e1a5A56cec413C59265da14396fa5C, 0x8C5dDCD3F601c91D1BF51c8ec26066010ACAbA7c, 860000000000000000)",
        "100000000000000000000",
        "0",
        "0x2f63f292C01A179E06f5275Cfe3278C1Efa7A1A2",
        "0x"
      ],
      "transaction": {
        "from": "0x2f63f292c01a179e06f5275cfe3278c1efa7a1a2",
        "to": "0xd011ee229e7459ba1ddd22631ef7bf528d424a14",
        "gas": "0x2d408",
        "value": "0x0",
        "input": "0xa99aad890000000000000000000000001b909218c474807550209a7e83875289004ae969000000000000000000000000b4a6e570425295856e688323befe9529aac84688000000000000000000000000bd10202762e1a5a56cec413c59265da14396fa5c0000000000000000000000008c5ddcd3f601c91d1bf51c8ec26066010acaba7c0000000000000000000000000000000000000000000000000bef55718ad600000000000000000000000000000000000000000000000000056bc75e2d6310000000000000000000000000000000000000000000000000000000000000000000000000000000000000000000002f63f292c01a179e06f5275cfe3278c1efa7a1a200000000000000000000000000000000000000000000000000000000000001200000000000000000000000000000000000000000000000000000000000000000",
        "nonce": "0x44",
        "chainId": "0xaa36a7"
      },
      "additionalContracts": [],
      "isFixedGasLimit": false
    },
    {
      "hash": "0x3766e25868a4b0c469c66a1c00c64a911629c832d87ddffa1a560af2a0b1626d",
      "transactionType": "CALL",
      "contractName": null,
      "contractAddress": "0xd011ee229e7459ba1ddd22631ef7bf528d424a14",
      "function": "supplyCollateral((address,address,address,address,uint256),uint256,address,bytes)",
      "arguments": [
        "(0x1b909218c474807550209a7E83875289004Ae969, 0xB4A6E570425295856E688323BEfE9529AAC84688, 0xBD10202762e1a5A56cec413C59265da14396fa5C, 0x8C5dDCD3F601c91D1BF51c8ec26066010ACAbA7c, 860000000000000000)",
        "50000000000000000000",
        "0x2f63f292C01A179E06f5275Cfe3278C1Efa7A1A2",
        "0x"
      ],
      "transaction": {
        "from": "0x2f63f292c01a179e06f5275cfe3278c1efa7a1a2",
        "to": "0xd011ee229e7459ba1ddd22631ef7bf528d424a14",
        "gas": "0x1d488",
        "value": "0x0",
        "input": "0x238d65790000000000000000000000001b909218c474807550209a7e83875289004ae969000000000000000000000000b4a6e570425295856e688323befe9529aac84688000000000000000000000000bd10202762e1a5a56cec413c59265da14396fa5c0000000000000000000000008c5ddcd3f601c91d1bf51c8ec26066010acaba7c0000000000000000000000000000000000000000000000000bef55718ad60000000000000000000000000000000000000000000000000002b5e3af16b18800000000000000000000000000002f63f292c01a179e06f5275cfe3278c1efa7a1a200000000000000000000000000000000000000000000000000000000000001000000000000000000000000000000000000000000000000000000000000000000",
        "nonce": "0x45",
        "chainId": "0xaa36a7"
      },
      "additionalContracts": [],
      "isFixedGasLimit": false
    },
    {
      "hash": "0x3136c8faef74cd51934da92cd47d4903316efb3f8234824c2075a786b50aa40d",
      "transactionType": "CALL",
      "contractName": null,
      "contractAddress": "0xd011ee229e7459ba1ddd22631ef7bf528d424a14",
      "function": "borrow((address,address,address,address,uint256),uint256,uint256,address,address)",
      "arguments": [
        "(0x1b909218c474807550209a7E83875289004Ae969, 0xB4A6E570425295856E688323BEfE9529AAC84688, 0xBD10202762e1a5A56cec413C59265da14396fa5C, 0x8C5dDCD3F601c91D1BF51c8ec26066010ACAbA7c, 860000000000000000)",
        "60000000000000000000",
        "0",
        "0x2f63f292C01A179E06f5275Cfe3278C1Efa7A1A2",
        "0x2f63f292C01A179E06f5275Cfe3278C1Efa7A1A2"
      ],
      "transaction": {
        "from": "0x2f63f292c01a179e06f5275cfe3278c1efa7a1a2",
        "to": "0xd011ee229e7459ba1ddd22631ef7bf528d424a14",
        "gas": "0x220e4",
        "value": "0x0",
        "input": "0x50d8cd4b0000000000000000000000001b909218c474807550209a7e83875289004ae969000000000000000000000000b4a6e570425295856e688323befe9529aac84688000000000000000000000000bd10202762e1a5a56cec413c59265da14396fa5c0000000000000000000000008c5ddcd3f601c91d1bf51c8ec26066010acaba7c0000000000000000000000000000000000000000000000000bef55718ad6000000000000000000000000000000000000000000000000000340aad21b3b70000000000000000000000000000000000000000000000000000000000000000000000000000000000000000000002f63f292c01a179e06f5275cfe3278c1efa7a1a20000000000000000000000002f63f292c01a179e06f5275cfe3278c1efa7a1a2",
        "nonce": "0x46",
        "chainId": "0xaa36a7"
      },
      "additionalContracts": [],
      "isFixedGasLimit": false
    }
  ],
  "receipts": [
    {
      "status": "0x1",
      "cumulativeGasUsed": "0x109efb2",
      "logs": [
        {
          "address": "0x1b909218c474807550209a7e83875289004ae969",
          "topics": [
            "0x8c5be1e5ebec7d5bd14f71427d1e84f3dd0314c0f7b2291e5b200ac8c7c3b925",
            "0x0000000000000000000000002f63f292c01a179e06f5275cfe3278c1efa7a1a2",
            "0x000000000000000000000000d011ee229e7459ba1ddd22631ef7bf528d424a14"
          ],
          "data": "0x0000000000000000000000000000000000000000000000056bc75e2d63100000",
          "blockHash": "0x947d229fb569e92f0fe2b311b354aa03a1c0e59333f4922bab078a0235c964ea",
          "blockNumber": "0x8cef46",
          "blockTimestamp": "0x68cd7be4",
          "transactionHash": "0x1a6a8d50fdc9c430e55d31592a4e4dfcb4051c1cb84c1d2b48d9b27d79a86586",
          "transactionIndex": "0x5e",
          "logIndex": "0xb1",
          "removed": false
        }
      ],
      "logsBloom": "0x00000000000000000000000000000000002000000000000000000000000000000000000000020000000000000000000000000000000000000000000000200000000000000000000000002000000000000000000000000000000000000000000000000000000000000000000000000000000200000000000000000000000000000000000000000000000000000000000000000000000000000000000000000800020000000000000000000000000000000008000000000000000000000000000000400000000000000000000000080000000000000000000000000000000000000010000000000000000000000000000000000000000004000000000000000000",
      "type": "0x2",
      "transactionHash": "0x1a6a8d50fdc9c430e55d31592a4e4dfcb4051c1cb84c1d2b48d9b27d79a86586",
      "transactionIndex": "0x5e",
      "blockHash": "0x947d229fb569e92f0fe2b311b354aa03a1c0e59333f4922bab078a0235c964ea",
      "blockNumber": "0x8cef46",
      "gasUsed": "0xb558",
      "effectiveGasPrice": "0xf4544",
      "from": "0x2f63f292c01a179e06f5275cfe3278c1efa7a1a2",
      "to": "0x1b909218c474807550209a7e83875289004ae969",
      "contractAddress": null
    },
    {
      "status": "0x1",
      "cumulativeGasUsed": "0x10c388b",
      "logs": [
        {
          "address": "0xb4a6e570425295856e688323befe9529aac84688",
          "topics": [
            "0x8c5be1e5ebec7d5bd14f71427d1e84f3dd0314c0f7b2291e5b200ac8c7c3b925",
            "0x0000000000000000000000002f63f292c01a179e06f5275cfe3278c1efa7a1a2",
            "0x000000000000000000000000d011ee229e7459ba1ddd22631ef7bf528d424a14"
          ],
          "data": "0x000000000000000000000000000000000000000000000002b5e3af16b1880000",
          "blockHash": "0x947d229fb569e92f0fe2b311b354aa03a1c0e59333f4922bab078a0235c964ea",
          "blockNumber": "0x8cef46",
          "blockTimestamp": "0x68cd7be4",
          "transactionHash": "0x742013e1f6e48b14b0db5b807a8bcb6e2824987ab09726a910d5f89b6b984b99",
          "transactionIndex": "0x60",
          "logIndex": "0xb6",
          "removed": false
        }
      ],
      "logsBloom": "0x00000000000000000000000000000000000000000000000000000000000000000000000000020000000000000000000000000000000000000000000000200000000000000000000000002000000000000000000000000000000000000000000000000000000000000000000000000000000a00000000000000000000000000000000000000000000000000000000000000000000000000000000000000000800020000000000000000000000000000000088000000000000000000000000000002000000000000000000000000000000000000000000000000000000000000000010000000000000000000000000000000000000000004000000000000000000",
      "type": "0x2",
      "transactionHash": "0x742013e1f6e48b14b0db5b807a8bcb6e2824987ab09726a910d5f89b6b984b99",
      "transactionIndex": "0x60",
      "blockHash": "0x947d229fb569e92f0fe2b311b354aa03a1c0e59333f4922bab078a0235c964ea",
      "blockNumber": "0x8cef46",
      "gasUsed": "0xb558",
      "effectiveGasPrice": "0xf4544",
      "from": "0x2f63f292c01a179e06f5275cfe3278c1efa7a1a2",
      "to": "0xb4a6e570425295856e688323befe9529aac84688",
      "contractAddress": null
    },
    {
      "status": "0x1",
      "cumulativeGasUsed": "0x112f587",
      "logs": [
        {
          "address": "0x8c5ddcd3f601c91d1bf51c8ec26066010acaba7c",
          "topics": [
            "0x7120161a7b3d31251e01294ab351ef15a41b91659a36032e4641bb89b121e321",
            "0x0761d379cc7d1212f71ad42bba304a80f1250baa0ad7a615a2501ac5f0e6ccb5"
          ],
          "data": "0x0000000000000000000000000000000000000000000000000000000012e6297c000000000000000000000000000000000000000000000000000000004b972ceb",
          "blockHash": "0x947d229fb569e92f0fe2b311b354aa03a1c0e59333f4922bab078a0235c964ea",
          "blockNumber": "0x8cef46",
          "blockTimestamp": "0x68cd7be4",
          "transactionHash": "0x53560b4cfd0dc70c67a88f57f9acde4f1b08b8c726db99707637189855ba9038",
          "transactionIndex": "0x63",
          "logIndex": "0xb9",
          "removed": false
        },
        {
          "address": "0xd011ee229e7459ba1ddd22631ef7bf528d424a14",
          "topics": [
            "0x9d9bd501d0657d7dfe415f779a620a62b78bc508ddc0891fbbd8b7ac0f8fce87",
            "0x0761d379cc7d1212f71ad42bba304a80f1250baa0ad7a615a2501ac5f0e6ccb5"
          ],
          "data": "0x0000000000000000000000000000000000000000000000000000000012e6297c00000000000000000000000000000000000000000000000000000000000000000000000000000000000000000000000000000000000000000000000000000000",
          "blockHash": "0x947d229fb569e92f0fe2b311b354aa03a1c0e59333f4922bab078a0235c964ea",
          "blockNumber": "0x8cef46",
          "blockTimestamp": "0x68cd7be4",
          "transactionHash": "0x53560b4cfd0dc70c67a88f57f9acde4f1b08b8c726db99707637189855ba9038",
          "transactionIndex": "0x63",
          "logIndex": "0xba",
          "removed": false
        },
        {
          "address": "0xd011ee229e7459ba1ddd22631ef7bf528d424a14",
          "topics": [
            "0xedf8870433c83823eb071d3df1caa8d008f12f6440918c20d75a3602cda30fe0",
            "0x0761d379cc7d1212f71ad42bba304a80f1250baa0ad7a615a2501ac5f0e6ccb5",
            "0x0000000000000000000000002f63f292c01a179e06f5275cfe3278c1efa7a1a2",
            "0x0000000000000000000000002f63f292c01a179e06f5275cfe3278c1efa7a1a2"
          ],
          "data": "0x0000000000000000000000000000000000000000000000056bc75e2d6310000000000000000000000000000000000000000000000052b7d2dcc80cd2e4000000",
          "blockHash": "0x947d229fb569e92f0fe2b311b354aa03a1c0e59333f4922bab078a0235c964ea",
          "blockNumber": "0x8cef46",
          "blockTimestamp": "0x68cd7be4",
          "transactionHash": "0x53560b4cfd0dc70c67a88f57f9acde4f1b08b8c726db99707637189855ba9038",
          "transactionIndex": "0x63",
          "logIndex": "0xbb",
          "removed": false
        },
        {
          "address": "0x1b909218c474807550209a7e83875289004ae969",
          "topics": [
            "0xddf252ad1be2c89b69c2b068fc378daa952ba7f163c4a11628f55a4df523b3ef",
            "0x0000000000000000000000002f63f292c01a179e06f5275cfe3278c1efa7a1a2",
            "0x000000000000000000000000d011ee229e7459ba1ddd22631ef7bf528d424a14"
          ],
          "data": "0x0000000000000000000000000000000000000000000000056bc75e2d63100000",
          "blockHash": "0x947d229fb569e92f0fe2b311b354aa03a1c0e59333f4922bab078a0235c964ea",
          "blockNumber": "0x8cef46",
          "blockTimestamp": "0x68cd7be4",
          "transactionHash": "0x53560b4cfd0dc70c67a88f57f9acde4f1b08b8c726db99707637189855ba9038",
          "transactionIndex": "0x63",
          "logIndex": "0xbc",
          "removed": false
        }
      ],
      "logsBloom": "0x00000000000000000000000000000000002000000000000000000000000000010000400000020000000000000000010000000000000000000000000020804000000000000000000000002008800000000000000800000000000000080000000000040800000000000000000000000000000200000000000000200010000000000000000000000000080000000000000000000000000000000000000000000800000000000000000000000000000000000008000000000000000000000000000000400002000000000000000000080000100000000000000000000000000000402000000000000000000000000001000000000000000004000800000000000000",
      "type": "0x2",
      "transactionHash": "0x53560b4cfd0dc70c67a88f57f9acde4f1b08b8c726db99707637189855ba9038",
      "transactionIndex": "0x63",
      "blockHash": "0x947d229fb569e92f0fe2b311b354aa03a1c0e59333f4922bab078a0235c964ea",
      "blockNumber": "0x8cef46",
      "gasUsed": "0x20c30",
      "effectiveGasPrice": "0xf4544",
      "from": "0x2f63f292c01a179e06f5275cfe3278c1efa7a1a2",
      "to": "0xd011ee229e7459ba1ddd22631ef7bf528d424a14",
      "contractAddress": null
    },
    {
      "status": "0x1",
      "cumulativeGasUsed": "0x11448bd",
      "logs": [
        {
          "address": "0xd011ee229e7459ba1ddd22631ef7bf528d424a14",
          "topics": [
            "0xa3b9472a1399e17e123f3c2e6586c23e504184d504de59cdaa2b375e880c6184",
            "0x0761d379cc7d1212f71ad42bba304a80f1250baa0ad7a615a2501ac5f0e6ccb5",
            "0x0000000000000000000000002f63f292c01a179e06f5275cfe3278c1efa7a1a2",
            "0x0000000000000000000000002f63f292c01a179e06f5275cfe3278c1efa7a1a2"
          ],
          "data": "0x000000000000000000000000000000000000000000000002b5e3af16b1880000",
          "blockHash": "0x947d229fb569e92f0fe2b311b354aa03a1c0e59333f4922bab078a0235c964ea",
          "blockNumber": "0x8cef46",
          "blockTimestamp": "0x68cd7be4",
          "transactionHash": "0x3766e25868a4b0c469c66a1c00c64a911629c832d87ddffa1a560af2a0b1626d",
          "transactionIndex": "0x64",
          "logIndex": "0xbd",
          "removed": false
        },
        {
          "address": "0xb4a6e570425295856e688323befe9529aac84688",
          "topics": [
            "0xddf252ad1be2c89b69c2b068fc378daa952ba7f163c4a11628f55a4df523b3ef",
            "0x0000000000000000000000002f63f292c01a179e06f5275cfe3278c1efa7a1a2",
            "0x000000000000000000000000d011ee229e7459ba1ddd22631ef7bf528d424a14"
          ],
          "data": "0x000000000000000000000000000000000000000000000002b5e3af16b1880000",
          "blockHash": "0x947d229fb569e92f0fe2b311b354aa03a1c0e59333f4922bab078a0235c964ea",
          "blockNumber": "0x8cef46",
          "blockTimestamp": "0x68cd7be4",
          "transactionHash": "0x3766e25868a4b0c469c66a1c00c64a911629c832d87ddffa1a560af2a0b1626d",
          "transactionIndex": "0x64",
          "logIndex": "0xbe",
          "removed": false
        }
      ],
      "logsBloom": "0x00000000000000000000000000000000000000000000000000000000000000000000000000020000000000000000010000000000000000000000000000000000000000000000000000002008000000000000000000000000000000000000000000040000000000000000000000000000000a00000000000000200010000000000000008000000000080000000000000000000000000000000000000000000800000000000000000000000000000000000088000000000000000000000000000002000002000000000000000000000000100000000000000400000000000000000000000000000000000000000000200000000000000004000800000000000000",
      "type": "0x2",
      "transactionHash": "0x3766e25868a4b0c469c66a1c00c64a911629c832d87ddffa1a560af2a0b1626d",
      "transactionIndex": "0x64",
      "blockHash": "0x947d229fb569e92f0fe2b311b354aa03a1c0e59333f4922bab078a0235c964ea",
      "blockNumber": "0x8cef46",
      "gasUsed": "0x15336",
      "effectiveGasPrice": "0xf4544",
      "from": "0x2f63f292c01a179e06f5275cfe3278c1efa7a1a2",
      "to": "0xd011ee229e7459ba1ddd22631ef7bf528d424a14",
      "contractAddress": null
    },
    {
      "status": "0x1",
      "cumulativeGasUsed": "0x115d33c",
      "logs": [
        {
          "address": "0xd011ee229e7459ba1ddd22631ef7bf528d424a14",
          "topics": [
            "0x570954540bed6b1304a87dfe815a5eda4a648f7097a16240dcd85c9b5fd42a43",
            "0x0761d379cc7d1212f71ad42bba304a80f1250baa0ad7a615a2501ac5f0e6ccb5",
            "0x0000000000000000000000002f63f292c01a179e06f5275cfe3278c1efa7a1a2",
            "0x0000000000000000000000002f63f292c01a179e06f5275cfe3278c1efa7a1a2"
          ],
          "data": "0x0000000000000000000000002f63f292c01a179e06f5275cfe3278c1efa7a1a200000000000000000000000000000000000000000000000340aad21b3b70000000000000000000000000000000000000000000000031a17e847807b1bc000000",
          "blockHash": "0x947d229fb569e92f0fe2b311b354aa03a1c0e59333f4922bab078a0235c964ea",
          "blockNumber": "0x8cef46",
          "blockTimestamp": "0x68cd7be4",
          "transactionHash": "0x3136c8faef74cd51934da92cd47d4903316efb3f8234824c2075a786b50aa40d",
          "transactionIndex": "0x65",
          "logIndex": "0xbf",
          "removed": false
        },
        {
          "address": "0x1b909218c474807550209a7e83875289004ae969",
          "topics": [
            "0xddf252ad1be2c89b69c2b068fc378daa952ba7f163c4a11628f55a4df523b3ef",
            "0x000000000000000000000000d011ee229e7459ba1ddd22631ef7bf528d424a14",
            "0x0000000000000000000000002f63f292c01a179e06f5275cfe3278c1efa7a1a2"
          ],
          "data": "0x00000000000000000000000000000000000000000000000340aad21b3b700000",
          "blockHash": "0x947d229fb569e92f0fe2b311b354aa03a1c0e59333f4922bab078a0235c964ea",
          "blockNumber": "0x8cef46",
          "blockTimestamp": "0x68cd7be4",
          "transactionHash": "0x3136c8faef74cd51934da92cd47d4903316efb3f8234824c2075a786b50aa40d",
          "transactionIndex": "0x65",
          "logIndex": "0xc0",
          "removed": false
        }
      ],
      "logsBloom": "0x00000000000000000002000000000000002000000000000000000000000000000000000000020000000000000000010000000000000000000000000000000000000000000000000000002008000000000000000000000000000000000000000000040000000000000000000000000000000200000000000000200010000000000000000000000000080000000000000000000000000000000000000000000800000000000000000000000000000000000008000000000000000000000000000000400002000000000000000000080000100000000000000000000000000000000000004000000008000000000000000000000000000004000800000000000000",
      "type": "0x2",
      "transactionHash": "0x3136c8faef74cd51934da92cd47d4903316efb3f8234824c2075a786b50aa40d",
      "transactionIndex": "0x65",
      "blockHash": "0x947d229fb569e92f0fe2b311b354aa03a1c0e59333f4922bab078a0235c964ea",
      "blockNumber": "0x8cef46",
      "gasUsed": "0x18a7f",
      "effectiveGasPrice": "0xf4544",
      "from": "0x2f63f292c01a179e06f5275cfe3278c1efa7a1a2",
      "to": "0xd011ee229e7459ba1ddd22631ef7bf528d424a14",
      "contractAddress": null
    }
  ],
  "libraries": [],
  "pending": [],
  "returns": {},
  "timestamp": 1758297061,
  "chain": 11155111,
  "commit": "9fa8e1a"
}