{
  "transactions": [
    {
      "hash": "0x857b2ee8ebe61e9ceed3d068a92e0a89c72a9e260e6b50c962370a2a09c829c3",
      "transactionType": "CALL",
      "contractName": null,
      "contractAddress": "0x1b909218c474807550209a7e83875289004ae969",
      "function": "mint(address,uint256)",
      "arguments": [
        "0x2f63f292C01A179E06f5275Cfe3278C1Efa7A1A2",
        "200000000000000000000"
      ],
      "transaction": {
        "from": "0x2f63f292c01a179e06f5275cfe3278c1efa7a1a2",
        "to": "0x1b909218c474807550209a7e83875289004ae969",
        "gas": "0x208ef",
        "value": "0x0",
        "input": "0x40c10f190000000000000000000000002f63f292c01a179e06f5275cfe3278c1efa7a1a200000000000000000000000000000000000000000000000ad78ebc5ac6200000",
        "nonce": "0x40",
        "chainId": "0xaa36a7"
      },
      "additionalContracts": [],
      "isFixedGasLimit": false
    },
    {
      "hash": "0xefdbfb3e80aaadf9b9eeac1da4219266e641cc620ff86acfaf4451ff7f14156d",
      "transactionType": "CALL",
      "contractName": null,
      "contractAddress": "0xb4a6e570425295856e688323befe9529aac84688",
      "function": "mint(address,uint256)",
      "arguments": [
        "0x2f63f292C01A179E06f5275Cfe3278C1Efa7A1A2",
        "100000000000000000000"
      ],
      "transaction": {
        "from": "0x2f63f292c01a179e06f5275cfe3278c1efa7a1a2",
        "to": "0xb4a6e570425295856e688323befe9529aac84688",
        "gas": "0x208ef",
        "value": "0x0",
        "input": "0x40c10f190000000000000000000000002f63f292c01a179e06f5275cfe3278c1efa7a1a20000000000000000000000000000000000000000000000056bc75e2d63100000",
        "nonce": "0x41",
        "chainId": "0xaa36a7"
      },
      "additionalContracts": [],
      "isFixedGasLimit": false
    }
  ],
  "receipts": [
    {
      "status": "0x1",
      "cumulativeGasUsed": "0xd3789b",
      "logs": [
        {
          "address": "0x1b909218c474807550209a7e83875289004ae969",
          "topics": [
            "0xddf252ad1be2c89b69c2b068fc378daa952ba7f163c4a11628f55a4df523b3ef",
            "0x0000000000000000000000000000000000000000000000000000000000000000",
            "0x0000000000000000000000002f63f292c01a179e06f5275cfe3278c1efa7a1a2"
          ],
          "data": "0x00000000000000000000000000000000000000000000000ad78ebc5ac6200000",
          "blockHash": "0x7a7fcff8a3c5920342e521e6888f000791bbaa171c20866313aac82191e5a811",
          "blockNumber": "0x8cef44",
          "blockTimestamp": "0x68cd7bcc",
          "transactionHash": "0x857b2ee8ebe61e9ceed3d068a92e0a89c72a9e260e6b50c962370a2a09c829c3",
          "transactionIndex": "0x53",
          "logIndex": "0x68",
          "removed": false
        },
        {
          "address": "0x1b909218c474807550209a7e83875289004ae969",
          "topics": [
            "0x8a28e0854ec5cebc76dc276a5b565c3a3b0c140a254ed392854ee136cb258b69",
            "0x0000000000000000000000002f63f292c01a179e06f5275cfe3278c1efa7a1a2"
          ],
          "data": "0x00000000000000000000000000000000000000000000000ad78ebc5ac6200000",
          "blockHash": "0x7a7fcff8a3c5920342e521e6888f000791bbaa171c20866313aac82191e5a811",
          "blockNumber": "0x8cef44",
          "blockTimestamp": "0x68cd7bcc",
          "transactionHash": "0x857b2ee8ebe61e9ceed3d068a92e0a89c72a9e260e6b50c962370a2a09c829c3",
          "transactionIndex": "0x53",
          "logIndex": "0x69",
          "removed": false
        }
      ],
      "logsBloom": "0x00000000000000000000010000000000002000000000000000000000000000000000000000020000000000000000000000000000000000000000000000000000000000000000000000000008000000000000000400000000000000000000000000000000020000000000000000000800000000000000000000000010000000000000000000000000000000000000000000000000000000000000400000000800000000000000000000000000000000000000000000000000000000000000000000400002000000000000000000080000000000000000000000000000000020000000000000000000000000000000000000000000000004000000000000000000",
      "type": "0x2",
      "transactionHash": "0x857b2ee8ebe61e9ceed3d068a92e0a89c72a9e260e6b50c962370a2a09c829c3",
      "transactionIndex": "0x53",
      "blockHash": "0x7a7fcff8a3c5920342e521e6888f000791bbaa171c20866313aac82191e5a811",
      "blockNumber": "0x8cef44",
      "gasUsed": "0x17926",
      "effectiveGasPrice": "0xf4512",
      "from": "0x2f63f292c01a179e06f5275cfe3278c1efa7a1a2",
      "to": "0x1b909218c474807550209a7e83875289004ae969",
      "contractAddress": null
    },
    {
      "status": "0x1",
      "cumulativeGasUsed": "0xd68542",
      "logs": [
        {
          "address": "0xb4a6e570425295856e688323befe9529aac84688",
          "topics": [
            "0xddf252ad1be2c89b69c2b068fc378daa952ba7f163c4a11628f55a4df523b3ef",
            "0x0000000000000000000000000000000000000000000000000000000000000000",
            "0x0000000000000000000000002f63f292c01a179e06f5275cfe3278c1efa7a1a2"
          ],
          "data": "0x0000000000000000000000000000000000000000000000056bc75e2d63100000",
          "blockHash": "0x7a7fcff8a3c5920342e521e6888f000791bbaa171c20866313aac82191e5a811",
          "blockNumber": "0x8cef44",
          "blockTimestamp": "0x68cd7bcc",
          "transactionHash": "0xefdbfb3e80aaadf9b9eeac1da4219266e641cc620ff86acfaf4451ff7f14156d",
          "transactionIndex": "0x55",
          "logIndex": "0x6e",
          "removed": false
        },
        {
          "address": "0xb4a6e570425295856e688323befe9529aac84688",
          "topics": [
            "0x8a28e0854ec5cebc76dc276a5b565c3a3b0c140a254ed392854ee136cb258b69",
            "0x0000000000000000000000002f63f292c01a179e06f5275cfe3278c1efa7a1a2"
          ],
          "data": "0x0000000000000000000000000000000000000000000000056bc75e2d63100000",
          "blockHash": "0x7a7fcff8a3c5920342e521e6888f000791bbaa171c20866313aac82191e5a811",
          "blockNumber": "0x8cef44",
          "blockTimestamp": "0x68cd7bcc",
          "transactionHash": "0xefdbfb3e80aaadf9b9eeac1da4219266e641cc620ff86acfaf4451ff7f14156d",
          "transactionIndex": "0x55",
          "logIndex": "0x6f",
          "removed": false
        }
      ],
      "logsBloom": "0x00000000000000000000010000000000000000000000000000000000000000000000000000020000000000000000000000000000000000000000000000000000000000000000000000000008000000000000000400000000000000000000000000000000020000000000000000000800000800000000000000000010000000000000000000000000000000000000000000000000000000000000400000000800000000000000000000000000000000000080000000000000000000000000000002000002000000000000000000000000000000000000000000000000000020000000000000000000000000000000000000000000000004000000000000000000",
      "type": "0x2",
      "transactionHash": "0xefdbfb3e80aaadf9b9eeac1da4219266e641cc620ff86acfaf4451ff7f14156d",
      "transactionIndex": "0x55",
      "blockHash": "0x7a7fcff8a3c5920342e521e6888f000791bbaa171c20866313aac82191e5a811",
      "blockNumber": "0x8cef44",
      "gasUsed": "0x17926",
      "effectiveGasPrice": "0xf4512",
      "from": "0x2f63f292c01a179e06f5275cfe3278c1efa7a1a2",
      "to": "0xb4a6e570425295856e688323befe9529aac84688",
      "contractAddress": null
    }
  ],
  "libraries": [],
  "pending": [],
  "returns": {},
  "timestamp": 1758297036,
  "chain": 11155111,
  "commit": "9fa8e1a"
}