{
  "transactions": [
    {
      "hash": "0x66694ee6614090648f168325e6b8beb3cfb236b105986491d3999012eaf6dd64",
      "transactionType": "CALL",
      "contractName": null,
      "contractAddress": "0xe3f8380851ee3a0bbceddd0bcde92d423812c1cd",
      "function": "createMarket((address,address,address,address,uint256))",
      "arguments": [
        "(0x8a43989648F8b86349A4FE58Aa2470261e4CfdfA, 0xDAB3157dF4e5561a14DF721f0945Cb9B49Ab5506, 0x0878Af8BAa013f7f6C4687391993b4206b9cde57, 0x9F16Bf4ef111fC4cE7A75F9aB3a3e20CD9754c92, 800000000000000000)"
      ],
      "transaction": {
        "from": "0x2f63f292c01a179e06f5275cfe3278c1efa7a1a2",
        "to": "0xe3f8380851ee3a0bbceddd0bcde92d423812c1cd",
        "gas": "0x3a96d",
        "value": "0x0",
        "input": "0x8c1358a20000000000000000000000008a43989648f8b86349a4fe58aa2470261e4cfdfa000000000000000000000000dab3157df4e5561a14df721f0945cb9b49ab55060000000000000000000000000878af8baa013f7f6c4687391993b4206b9cde570000000000000000000000009f16bf4ef111fc4ce7a75f9ab3a3e20cd9754c920000000000000000000000000000000000000000000000000b1a2bc2ec500000",
        "nonce": "0x24",
        "chainId": "0xdeadbfee"
      },
      "additionalContracts": [],
      "isFixedGasLimit": false
    }
  ],
  "receipts": [
    {
      "status": "0x1",
      "cumulativeGasUsed": "0x2a6af",
      "logs": [
        {
          "address": "0xe3f8380851ee3a0bbceddd0bcde92d423812c1cd",
          "topics": [
            "0xac4b2400f169220b0c0afdde7a0b32e775ba727ea1cb30b35f935cdaab8683ac",
            "0x75f28b20c33eb6a853c3bb8fb6bae1b3902f6941ad4f1ebea4b245c00541e95d"
          ],
          "data": "0x0000000000000000000000008a43989648f8b86349a4fe58aa2470261e4cfdfa000000000000000000000000dab3157df4e5561a14df721f0945cb9b49ab55060000000000000000000000000878af8baa013f7f6c4687391993b4206b9cde570000000000000000000000009f16bf4ef111fc4ce7a75f9ab3a3e20cd9754c920000000000000000000000000000000000000000000000000b1a2bc2ec500000",
          "blockHash": "0xbd3a2308a778fe6dde173ef6c36c564e719ed2981ee7002be19f3c2339609ad5",
          "blockNumber": "0x51ba82",
          "blockTimestamp": "0x68e91e75",
          "transactionHash": "0x66694ee6614090648f168325e6b8beb3cfb236b105986491d3999012eaf6dd64",
          "transactionIndex": "0x0",
          "logIndex": "0x0",
          "removed": false
        }
      ],
      "logsBloom": "0x00000000000000000000000000000800000000000000000000008000000000000000000000000000000000000012000000000000000000000000002000000000000000000000000000000000000000000000000000000000000000000000000000000000000000000000000000000000000000000000000000000040000000000000000000000000000000000000000000000000000000000000000000000000000000000000000000000000000000000000000000000000000000000000000000000000004004000000000000000000000000000000000000000000000000000000000000000000000000000000000000000000000000000000000000000010",
      "type": "0x2",
      "transactionHash": "0x66694ee6614090648f168325e6b8beb3cfb236b105986491d3999012eaf6dd64",
      "transactionIndex": "0x0",
      "blockHash": "0xbd3a2308a778fe6dde173ef6c36c564e719ed2981ee7002be19f3c2339609ad5",
      "blockNumber": "0x51ba82",
      "gasUsed": "0x2a6af",
      "effectiveGasPrice": "0x8",
      "from": "0x2f63f292c01a179e06f5275cfe3278c1efa7a1a2",
      "to": "0xe3f8380851ee3a0bbceddd0bcde92d423812c1cd",
      "contractAddress": null
    }
  ],
  "libraries": [],
  "pending": [],
  "returns": {},
  "timestamp": 1760108150710,
  "chain": 3735928814,
  "commit": "b6fb363"
}