{
  "transactions": [
    {
      "hash": "0xb04340c50befb09f21fbeba107fe63bff1f684f83635806ef7eba5442105afdd",
      "transactionType": "CALL",
      "contractName": null,
      "contractAddress": "0x8a43989648f8b86349a4fe58aa2470261e4cfdfa",
      "function": "approve(address,uint256)",
      "arguments": [
        "0xe3F8380851ee3A0BBcedDD0bCDe92d423812C1Cd",
        "1000000000000000000000"
      ],
      "transaction": {
        "from": "0x2f63f292c01a179e06f5275cfe3278c1efa7a1a2",
        "to": "0x8a43989648f8b86349a4fe58aa2470261e4cfdfa",
        "gas": "0xfa7a",
        "value": "0x0",
        "input": "0x095ea7b3000000000000000000000000e3f8380851ee3a0bbceddd0bcde92d423812c1cd00000000000000000000000000000000000000000000003635c9adc5dea00000",
        "nonce": "0x10",
        "chainId": "0xdeadbfee"
      },
      "additionalContracts": [],
      "isFixedGasLimit": false
    },
    {
      "hash": "0xa863a27fffe254a45154998e0e072681fb0636fc0ac9a0f4d0852435ca92ada6",
      "transactionType": "CALL",
      "contractName": null,
      "contractAddress": "0xdab3157df4e5561a14df721f0945cb9b49ab5506",
      "function": "approve(address,uint256)",
      "arguments": [
        "0xe3F8380851ee3A0BBcedDD0bCDe92d423812C1Cd",
        "800000000000000000000"
      ],
      "transaction": {
        "from": "0x2f63f292c01a179e06f5275cfe3278c1efa7a1a2",
        "to": "0xdab3157df4e5561a14df721f0945cb9b49ab5506",
        "gas": "0xfa7a",
        "value": "0x0",
        "input": "0x095ea7b3000000000000000000000000e3f8380851ee3a0bbceddd0bcde92d423812c1cd00000000000000000000000000000000000000000000002b5e3af16b18800000",
        "nonce": "0x11",
        "chainId": "0xdeadbfee"
      },
      "additionalContracts": [],
      "isFixedGasLimit": false
    },
    {
      "hash": "0x84f866dd2df079848f177c1d48ae50a8cd95dd8844b7295cb223658c73e639b6",
      "transactionType": "CALL",
      "contractName": null,
      "contractAddress": "0xe3f8380851ee3a0bbceddd0bcde92d423812c1cd",
      "function": "supply((address,address,address,address,uint256),uint256,uint256,address,bytes)",
      "arguments": [
        "(0x8a43989648F8b86349A4FE58Aa2470261e4CfdfA, 0xDAB3157dF4e5561a14DF721f0945Cb9B49Ab5506, 0xe547b035582E250cD6667799D32C1BabCf5e62e9, 0x9F16Bf4ef111fC4cE7A75F9aB3a3e20CD9754c92, 800000000000000000)",
        "1000000000000000000000",
        "0",
        "0x2f63f292C01A179E06f5275Cfe3278C1Efa7A1A2",
        "0x"
      ],
      "transaction": {
        "from": "0x2f63f292c01a179e06f5275cfe3278c1efa7a1a2",
        "to": "0xe3f8380851ee3a0bbceddd0bcde92d423812c1cd",
        "gas": "0x2afe4",
        "value": "0x0",
        "input": "0xa99aad890000000000000000000000008a43989648f8b86349a4fe58aa2470261e4cfdfa000000000000000000000000dab3157df4e5561a14df721f0945cb9b49ab5506000000000000000000000000e547b035582e250cd6667799d32c1babcf5e62e90000000000000000000000009f16bf4ef111fc4ce7a75f9ab3a3e20cd9754c920000000000000000000000000000000000000000000000000b1a2bc2ec50000000000000000000000000000000000000000000000000003635c9adc5dea0000000000000000000000000000000000000000000000000000000000000000000000000000000000000000000002f63f292c01a179e06f5275cfe3278c1efa7a1a200000000000000000000000000000000000000000000000000000000000001200000000000000000000000000000000000000000000000000000000000000000",
        "nonce": "0x12",
        "chainId": "0xdeadbfee"
      },
      "additionalContracts": [],
      "isFixedGasLimit": false
    },
    {
      "hash": "0xb2b1d408f1dce117a2244e6f4bd867eecd1ac716ec9e9156cfb5555da3b2766b",
      "transactionType": "CALL",
      "contractName": null,
      "contractAddress": "0xe3f8380851ee3a0bbceddd0bcde92d423812c1cd",
      "function": "supplyCollateral((address,address,address,address,uint256),uint256,address,bytes)",
      "arguments": [
        "(0x8a43989648F8b86349A4FE58Aa2470261e4CfdfA, 0xDAB3157dF4e5561a14DF721f0945Cb9B49Ab5506, 0xe547b035582E250cD6667799D32C1BabCf5e62e9, 0x9F16Bf4ef111fC4cE7A75F9aB3a3e20CD9754c92, 800000000000000000)",
        "800000000000000000000",
        "0x2f63f292C01A179E06f5275Cfe3278C1Efa7A1A2",
        "0x"
      ],
      "transaction": {
        "from": "0x2f63f292c01a179e06f5275cfe3278c1efa7a1a2",
        "to": "0xe3f8380851ee3a0bbceddd0bcde92d423812c1cd",
        "gas": "0x1d73e",
        "value": "0x0",
        "input": "0x238d65790000000000000000000000008a43989648f8b86349a4fe58aa2470261e4cfdfa000000000000000000000000dab3157df4e5561a14df721f0945cb9b49ab5506000000000000000000000000e547b035582e250cd6667799d32c1babcf5e62e90000000000000000000000009f16bf4ef111fc4ce7a75f9ab3a3e20cd9754c920000000000000000000000000000000000000000000000000b1a2bc2ec50000000000000000000000000000000000000000000000000002b5e3af16b188000000000000000000000000000002f63f292c01a179e06f5275cfe3278c1efa7a1a200000000000000000000000000000000000000000000000000000000000001000000000000000000000000000000000000000000000000000000000000000000",
        "nonce": "0x13",
        "chainId": "0xdeadbfee"
      },
      "additionalContracts": [],
      "isFixedGasLimit": false
    },
    {
      "hash": "0x8aad74c3cd14d0226240a3996c5fe99dd2e765c063fb38367f5186ec7dda7275",
      "transactionType": "CALL",
      "contractName": null,
      "contractAddress": "0xe3f8380851ee3a0bbceddd0bcde92d423812c1cd",
      "function": "borrow((address,address,address,address,uint256),uint256,uint256,address,address)",
      "arguments": [
        "(0x8a43989648F8b86349A4FE58Aa2470261e4CfdfA, 0xDAB3157dF4e5561a14DF721f0945Cb9B49Ab5506, 0xe547b035582E250cD6667799D32C1BabCf5e62e9, 0x9F16Bf4ef111fC4cE7A75F9aB3a3e20CD9754c92, 800000000000000000)",
        "600000000000000000000",
        "0",
        "0x2f63f292C01A179E06f5275Cfe3278C1Efa7A1A2",
        "0x2f63f292C01A179E06f5275Cfe3278C1Efa7A1A2"
      ],
      "transaction": {
        "from": "0x2f63f292c01a179e06f5275cfe3278c1efa7a1a2",
        "to": "0xe3f8380851ee3a0bbceddd0bcde92d423812c1cd",
        "gas": "0x1d8a5",
        "value": "0x0",
        "input": "0x50d8cd4b0000000000000000000000008a43989648f8b86349a4fe58aa2470261e4cfdfa000000000000000000000000dab3157df4e5561a14df721f0945cb9b49ab5506000000000000000000000000e547b035582e250cd6667799d32c1babcf5e62e90000000000000000000000009f16bf4ef111fc4ce7a75f9ab3a3e20cd9754c920000000000000000000000000000000000000000000000000b1a2bc2ec50000000000000000000000000000000000000000000000000002086ac35105260000000000000000000000000000000000000000000000000000000000000000000000000000000000000000000002f63f292c01a179e06f5275cfe3278c1efa7a1a20000000000000000000000002f63f292c01a179e06f5275cfe3278c1efa7a1a2",
        "nonce": "0x14",
        "chainId": "0xdeadbfee"
      },
      "additionalContracts": [],
      "isFixedGasLimit": false
    }
  ],
  "receipts": [
    {
      "status": "0x1",
      "cumulativeGasUsed": "0xb558",
      "logs": [
        {
          "address": "0x8a43989648f8b86349a4fe58aa2470261e4cfdfa",
          "topics": [
            "0x8c5be1e5ebec7d5bd14f71427d1e84f3dd0314c0f7b2291e5b200ac8c7c3b925",
            "0x0000000000000000000000002f63f292c01a179e06f5275cfe3278c1efa7a1a2",
            "0x000000000000000000000000e3f8380851ee3a0bbceddd0bcde92d423812c1cd"
          ],
          "data": "0x00000000000000000000000000000000000000000000003635c9adc5dea00000",
          "blockHash": "0xd5a09d53acf7998dd2e4dc64627782544b57907bb5574faf893d10845c39d48d",
          "blockNumber": "0x500655",
          "blockTimestamp": "0x68e84307",
          "transactionHash": "0xb04340c50befb09f21fbeba107fe63bff1f684f83635806ef7eba5442105afdd",
          "transactionIndex": "0x0",
          "logIndex": "0x0",
          "removed": false
        }
      ],
      "logsBloom": "0x00000000000000000000000000000002000000000000000000000000000000000000000000020000000000000000000000000000000000000000000000200000000000000000000000000000000000000000020000000000000000000000000000000000000000000000000000000000000000000000000000000001000000000000000000000000000000000000000000000000000000000000000000000800020000000000000002000000000000000000000000000000000000000000000000000000000000000000001000000000000000000000000000000000000000000010400000000000000000000000000000000000000004000000000000000000",
      "type": "0x2",
      "transactionHash": "0xb04340c50befb09f21fbeba107fe63bff1f684f83635806ef7eba5442105afdd",
      "transactionIndex": "0x0",
      "blockHash": "0xd5a09d53acf7998dd2e4dc64627782544b57907bb5574faf893d10845c39d48d",
      "blockNumber": "0x500655",
      "gasUsed": "0xb558",
      "effectiveGasPrice": "0x8",
      "from": "0x2f63f292c01a179e06f5275cfe3278c1efa7a1a2",
      "to": "0x8a43989648f8b86349a4fe58aa2470261e4cfdfa",
      "contractAddress": null
    },
    {
      "status": "0x1",
      "cumulativeGasUsed": "0x16ab0",
      "logs": [
        {
          "address": "0xdab3157df4e5561a14df721f0945cb9b49ab5506",
          "topics": [
            "0x8c5be1e5ebec7d5bd14f71427d1e84f3dd0314c0f7b2291e5b200ac8c7c3b925",
            "0x0000000000000000000000002f63f292c01a179e06f5275cfe3278c1efa7a1a2",
            "0x000000000000000000000000e3f8380851ee3a0bbceddd0bcde92d423812c1cd"
          ],
          "data": "0x00000000000000000000000000000000000000000000002b5e3af16b18800000",
          "blockHash": "0xd5a09d53acf7998dd2e4dc64627782544b57907bb5574faf893d10845c39d48d",
          "blockNumber": "0x500655",
          "blockTimestamp": "0x68e84307",
          "transactionHash": "0xa863a27fffe254a45154998e0e072681fb0636fc0ac9a0f4d0852435ca92ada6",
          "transactionIndex": "0x1",
          "logIndex": "0x1",
          "removed": false
        }
      ],
      "logsBloom": "0x00000000000000000000000000000000000000000000000000000000000000000000000000020000000000000000000000000000000000080000000000200000000000000000000000000000000000000000020000000000000000000000000000000000000000000000000100000000000000000000000000000000000000000000000000000000000000000000000000000000000000000000000000000800020000000000000802000000000000000000000000000000000000000000000000000000000000000000000000000000000000000000000000000000000000000010400000000000000000000000000000000000000004000000000000000000",
      "type": "0x2",
      "transactionHash": "0xa863a27fffe254a45154998e0e072681fb0636fc0ac9a0f4d0852435ca92ada6",
      "transactionIndex": "0x1",
      "blockHash": "0xd5a09d53acf7998dd2e4dc64627782544b57907bb5574faf893d10845c39d48d",
      "blockNumber": "0x500655",
      "gasUsed": "0xb558",
      "effectiveGasPrice": "0x8",
      "from": "0x2f63f292c01a179e06f5275cfe3278c1efa7a1a2",
      "to": "0xdab3157df4e5561a14df721f0945cb9b49ab5506",
      "contractAddress": null
    },
    {
      "status": "0x1",
      "cumulativeGasUsed": "0x35cb6",
      "logs": [
        {
          "address": "0xe3f8380851ee3a0bbceddd0bcde92d423812c1cd",
          "topics": [
            "0x9d9bd501d0657d7dfe415f779a620a62b78bc508ddc0891fbbd8b7ac0f8fce87",
            "0x3094d2646e38de56cec65ce3fa20ccb4ae9ec444f092cc2b3c4ad292684c0ae3"
          ],
          "data": "0x000000000000000000000000000000000000000000000000000000000000000000000000000000000000000000000000000000000000000000000000000000000000000000000000000000000000000000000000000000000000000000000000",
          "blockHash": "0xd5a09d53acf7998dd2e4dc64627782544b57907bb5574faf893d10845c39d48d",
          "blockNumber": "0x500655",
          "blockTimestamp": "0x68e84307",
          "transactionHash": "0x84f866dd2df079848f177c1d48ae50a8cd95dd8844b7295cb223658c73e639b6",
          "transactionIndex": "0x2",
          "logIndex": "0x2",
          "removed": false
        },
        {
          "address": "0xe3f8380851ee3a0bbceddd0bcde92d423812c1cd",
          "topics": [
            "0xedf8870433c83823eb071d3df1caa8d008f12f6440918c20d75a3602cda30fe0",
            "0x3094d2646e38de56cec65ce3fa20ccb4ae9ec444f092cc2b3c4ad292684c0ae3",
            "0x0000000000000000000000002f63f292c01a179e06f5275cfe3278c1efa7a1a2",
            "0x0000000000000000000000002f63f292c01a179e06f5275cfe3278c1efa7a1a2"
          ],
          "data": "0x00000000000000000000000000000000000000000000003635c9adc5dea000000000000000000000000000000000000000000000033b2e3c9fd0803ce8000000",
          "blockHash": "0xd5a09d53acf7998dd2e4dc64627782544b57907bb5574faf893d10845c39d48d",
          "blockNumber": "0x500655",
          "blockTimestamp": "0x68e84307",
          "transactionHash": "0x84f866dd2df079848f177c1d48ae50a8cd95dd8844b7295cb223658c73e639b6",
          "transactionIndex": "0x2",
          "logIndex": "0x3",
          "removed": false
        },
        {
          "address": "0x8a43989648f8b86349a4fe58aa2470261e4cfdfa",
          "topics": [
            "0xddf252ad1be2c89b69c2b068fc378daa952ba7f163c4a11628f55a4df523b3ef",
            "0x0000000000000000000000002f63f292c01a179e06f5275cfe3278c1efa7a1a2",
            "0x000000000000000000000000e3f8380851ee3a0bbceddd0bcde92d423812c1cd"
          ],
          "data": "0x00000000000000000000000000000000000000000000003635c9adc5dea00000",
          "blockHash": "0xd5a09d53acf7998dd2e4dc64627782544b57907bb5574faf893d10845c39d48d",
          "blockNumber": "0x500655",
          "blockTimestamp": "0x68e84307",
          "transactionHash": "0x84f866dd2df079848f177c1d48ae50a8cd95dd8844b7295cb223658c73e639b6",
          "transactionIndex": "0x2",
          "logIndex": "0x4",
          "removed": false
        }
      ],
      "logsBloom": "0x00000000000000000000000000000002000080000000000000008000000000000000400000020000000000000000000000000000000000000000002020000000000000000000000000000008800000000000020800000000000000080000000000000000000000000000000000000000000000000000000000000011000000000000000000000000000000000000000000000000000000000000000000000800000000000000000002000000000000000000000000000000000000000000000004000002000004000000001000000000100000000000000000000000000000400000400000000000000000000000000000000000000004000000000000000000",
      "type": "0x2",
      "transactionHash": "0x84f866dd2df079848f177c1d48ae50a8cd95dd8844b7295cb223658c73e639b6",
      "transactionIndex": "0x2",
      "blockHash": "0xd5a09d53acf7998dd2e4dc64627782544b57907bb5574faf893d10845c39d48d",
      "blockNumber": "0x500655",
      "gasUsed": "0x1f206",
      "effectiveGasPrice": "0x8",
      "from": "0x2f63f292c01a179e06f5275cfe3278c1efa7a1a2",
      "to": "0xe3f8380851ee3a0bbceddd0bcde92d423812c1cd",
      "contractAddress": null
    },
    {
      "status": "0x1",
      "cumulativeGasUsed": "0x4b1e3",
      "logs": [
        {
          "address": "0xe3f8380851ee3a0bbceddd0bcde92d423812c1cd",
          "topics": [
            "0xa3b9472a1399e17e123f3c2e6586c23e504184d504de59cdaa2b375e880c6184",
            "0x3094d2646e38de56cec65ce3fa20ccb4ae9ec444f092cc2b3c4ad292684c0ae3",
            "0x0000000000000000000000002f63f292c01a179e06f5275cfe3278c1efa7a1a2",
            "0x0000000000000000000000002f63f292c01a179e06f5275cfe3278c1efa7a1a2"
          ],
          "data": "0x00000000000000000000000000000000000000000000002b5e3af16b18800000",
          "blockHash": "0xd5a09d53acf7998dd2e4dc64627782544b57907bb5574faf893d10845c39d48d",
          "blockNumber": "0x500655",
          "blockTimestamp": "0x68e84307",
          "transactionHash": "0xb2b1d408f1dce117a2244e6f4bd867eecd1ac716ec9e9156cfb5555da3b2766b",
          "transactionIndex": "0x3",
          "logIndex": "0x5",
          "removed": false
        },
        {
          "address": "0xdab3157df4e5561a14df721f0945cb9b49ab5506",
          "topics": [
            "0xddf252ad1be2c89b69c2b068fc378daa952ba7f163c4a11628f55a4df523b3ef",
            "0x0000000000000000000000002f63f292c01a179e06f5275cfe3278c1efa7a1a2",
            "0x000000000000000000000000e3f8380851ee3a0bbceddd0bcde92d423812c1cd"
          ],
          "data": "0x00000000000000000000000000000000000000000000002b5e3af16b18800000",
          "blockHash": "0xd5a09d53acf7998dd2e4dc64627782544b57907bb5574faf893d10845c39d48d",
          "blockNumber": "0x500655",
          "blockTimestamp": "0x68e84307",
          "transactionHash": "0xb2b1d408f1dce117a2244e6f4bd867eecd1ac716ec9e9156cfb5555da3b2766b",
          "transactionIndex": "0x3",
          "logIndex": "0x6",
          "removed": false
        }
      ],
      "logsBloom": "0x00000000000000000000000000000000000080000000000000008000000000000000000000020000000000000000000000000000000000080000002000000000000000000000000000000008000000000000020000000000000000000000000000000000000000000000000100000000000000000000000000000010000000000000008000000000000000000000000000000000000000000000000000000800000000000000000802000000000000000000000000000000000000000000000004000002000004000000000000000000100000000000000400000000000000000000400000000000000000000000200000000000000004000000000000000000",
      "type": "0x2",
      "transactionHash": "0xb2b1d408f1dce117a2244e6f4bd867eecd1ac716ec9e9156cfb5555da3b2766b",
      "transactionIndex": "0x3",
      "blockHash": "0xd5a09d53acf7998dd2e4dc64627782544b57907bb5574faf893d10845c39d48d",
      "blockNumber": "0x500655",
      "gasUsed": "0x1552d",
      "effectiveGasPrice": "0x8",
      "from": "0x2f63f292c01a179e06f5275cfe3278c1efa7a1a2",
      "to": "0xe3f8380851ee3a0bbceddd0bcde92d423812c1cd",
      "contractAddress": null
    },
    {
      "status": "0x1",
      "cumulativeGasUsed": "0x60813",
      "logs": [
        {
          "address": "0xe3f8380851ee3a0bbceddd0bcde92d423812c1cd",
          "topics": [
            "0x570954540bed6b1304a87dfe815a5eda4a648f7097a16240dcd85c9b5fd42a43",
            "0x3094d2646e38de56cec65ce3fa20ccb4ae9ec444f092cc2b3c4ad292684c0ae3",
            "0x0000000000000000000000002f63f292c01a179e06f5275cfe3278c1efa7a1a2",
            "0x0000000000000000000000002f63f292c01a179e06f5275cfe3278c1efa7a1a2"
          ],
          "data": "0x0000000000000000000000002f63f292c01a179e06f5275cfe3278c1efa7a1a200000000000000000000000000000000000000000000002086ac351052600000000000000000000000000000000000000000000001f04ef12cb04cf158000000",
          "blockHash": "0xd5a09d53acf7998dd2e4dc64627782544b57907bb5574faf893d10845c39d48d",
          "blockNumber": "0x500655",
          "blockTimestamp": "0x68e84307",
          "transactionHash": "0x8aad74c3cd14d0226240a3996c5fe99dd2e765c063fb38367f5186ec7dda7275",
          "transactionIndex": "0x4",
          "logIndex": "0x7",
          "removed": false
        },
        {
          "address": "0x8a43989648f8b86349a4fe58aa2470261e4cfdfa",
          "topics": [
            "0xddf252ad1be2c89b69c2b068fc378daa952ba7f163c4a11628f55a4df523b3ef",
            "0x000000000000000000000000e3f8380851ee3a0bbceddd0bcde92d423812c1cd",
            "0x0000000000000000000000002f63f292c01a179e06f5275cfe3278c1efa7a1a2"
          ],
          "data": "0x00000000000000000000000000000000000000000000002086ac351052600000",
          "blockHash": "0xd5a09d53acf7998dd2e4dc64627782544b57907bb5574faf893d10845c39d48d",
          "blockNumber": "0x500655",
          "blockTimestamp": "0x68e84307",
          "transactionHash": "0x8aad74c3cd14d0226240a3996c5fe99dd2e765c063fb38367f5186ec7dda7275",
          "transactionIndex": "0x4",
          "logIndex": "0x8",
          "removed": false
        }
      ],
      "logsBloom": "0x00000000000000000002000000000002000080000000000000008000000000000000000000020000000000000000000000000000000000000000002000000000000000000000000000000008000000000000020000000000000000000000000000000000000000000000000000000000000000000000000000000011000000000000000000000000000000000000000000000000000000000000000000000800000000000000000002000000000000000000000000000000000000000000000004000002000004000000001000000000100000000000000000000000000000000000404000000008000000000000000000000000000004000000000000000000",
      "type": "0x2",
      "transactionHash": "0x8aad74c3cd14d0226240a3996c5fe99dd2e765c063fb38367f5186ec7dda7275",
      "transactionIndex": "0x4",
      "blockHash": "0xd5a09d53acf7998dd2e4dc64627782544b57907bb5574faf893d10845c39d48d",
      "blockNumber": "0x500655",
      "gasUsed": "0x15630",
      "effectiveGasPrice": "0x8",
      "from": "0x2f63f292c01a179e06f5275cfe3278c1efa7a1a2",
      "to": "0xe3f8380851ee3a0bbceddd0bcde92d423812c1cd",
      "contractAddress": null
    }
  ],
  "libraries": [],
  "pending": [],
  "returns": {},
  "timestamp": 1760051975158,
  "chain": 3735928814,
  "commit": "fef0f9c"
}