{
  "transactions": [
    {
      "hash": "0xe953c0a96e0a9d19929557b8f06dc4ffe55b53f6a59b8ed306d3c8086d57e352",
      "transactionType": "CALL",
      "contractName": null,
      "contractAddress": "0x8a43989648f8b86349a4fe58aa2470261e4cfdfa",
      "function": "mint(address,uint256)",
      "arguments": [
        "0x2f63f292C01A179E06f5275Cfe3278C1Efa7A1A2",
        "2000000000000000000000"
      ],
      "transaction": {
        "from": "0x2f63f292c01a179e06f5275cfe3278c1efa7a1a2",
        "to": "0x8a43989648f8b86349a4fe58aa2470261e4cfdfa",
        "gas": "0x10281",
        "value": "0x0",
        "input": "0x40c10f190000000000000000000000002f63f292c01a179e06f5275cfe3278c1efa7a1a200000000000000000000000000000000000000000000006c6b935b8bbd400000",
        "nonce": "0x29",
        "chainId": "0xdeadbfee"
      },
      "additionalContracts": [],
      "isFixedGasLimit": false
    },
    {
      "hash": "0x8cb5343c108caf35cfbd2447c85afda766a4c88e1b16a83d423427b9df7bb18f",
      "transactionType": "CALL",
      "contractName": null,
      "contractAddress": "0xdab3157df4e5561a14df721f0945cb9b49ab5506",
      "function": "mint(address,uint256)",
      "arguments": [
        "0x2f63f292C01A179E06f5275Cfe3278C1Efa7A1A2",
        "1500000000000000000000"
      ],
      "transaction": {
        "from": "0x2f63f292c01a179e06f5275cfe3278c1efa7a1a2",
        "to": "0xdab3157df4e5561a14df721f0945cb9b49ab5506",
        "gas": "0x10281",
        "value": "0x0",
        "input": "0x40c10f190000000000000000000000002f63f292c01a179e06f5275cfe3278c1efa7a1a200000000000000000000000000000000000000000000005150ae84a8cdf00000",
        "nonce": "0x2a",
        "chainId": "0xdeadbfee"
      },
      "additionalContracts": [],
      "isFixedGasLimit": false
    }
  ],
  "receipts": [
    {
      "status": "0x1",
      "cumulativeGasUsed": "0xb0c2",
      "logs": [
        {
          "address": "0x8a43989648f8b86349a4fe58aa2470261e4cfdfa",
          "topics": [
            "0xddf252ad1be2c89b69c2b068fc378daa952ba7f163c4a11628f55a4df523b3ef",
            "0x0000000000000000000000000000000000000000000000000000000000000000",
            "0x0000000000000000000000002f63f292c01a179e06f5275cfe3278c1efa7a1a2"
          ],
          "data": "0x00000000000000000000000000000000000000000000006c6b935b8bbd400000",
          "blockHash": "0x581cdfc9d3e935c55fbbc60010d383af47818716add24d8f0d5bbb78e0221d24",
          "blockNumber": "0x51baeb",
          "blockTimestamp": "0x68e91eaa",
          "transactionHash": "0xe953c0a96e0a9d19929557b8f06dc4ffe55b53f6a59b8ed306d3c8086d57e352",
          "transactionIndex": "0x0",
          "logIndex": "0x0",
          "removed": false
        },
        {
          "address": "0x8a43989648f8b86349a4fe58aa2470261e4cfdfa",
          "topics": [
            "0x8a28e0854ec5cebc76dc276a5b565c3a3b0c140a254ed392854ee136cb258b69",
            "0x0000000000000000000000002f63f292c01a179e06f5275cfe3278c1efa7a1a2"
          ],
          "data": "0x00000000000000000000000000000000000000000000006c6b935b8bbd400000",
          "blockHash": "0x581cdfc9d3e935c55fbbc60010d383af47818716add24d8f0d5bbb78e0221d24",
          "blockNumber": "0x51baeb",
          "blockTimestamp": "0x68e91eaa",
          "transactionHash": "0xe953c0a96e0a9d19929557b8f06dc4ffe55b53f6a59b8ed306d3c8086d57e352",
          "transactionIndex": "0x0",
          "logIndex": "0x1",
          "removed": false
        }
      ],
      "logsBloom": "0x00000000000000000000010000000002000000000000000000000000000000000000000000020000000000000000000000000000000000000000000000000000000000000000000000000008000000000000000400000000000000000000000000000000020000000000000000000800000000000000000000000011000000000000000000000000000000000000000000000000000000000000400000000800000000000000000000000000000000000000000000000000000000000000000000000002000000000000001000000000000000000000000000000000000020000000000000000000000000000000000000000000000004000000000000000000",
      "type": "0x2",
      "transactionHash": "0xe953c0a96e0a9d19929557b8f06dc4ffe55b53f6a59b8ed306d3c8086d57e352",
      "transactionIndex": "0x0",
      "blockHash": "0x581cdfc9d3e935c55fbbc60010d383af47818716add24d8f0d5bbb78e0221d24",
      "blockNumber": "0x51baeb",
      "gasUsed": "0xb0c2",
      "effectiveGasPrice": "0x8",
      "from": "0x2f63f292c01a179e06f5275cfe3278c1efa7a1a2",
      "to": "0x8a43989648f8b86349a4fe58aa2470261e4cfdfa",
      "contractAddress": null
    },
    {
      "status": "0x1",
      "cumulativeGasUsed": "0xb0c2",
      "logs": [
        {
          "address": "0xdab3157df4e5561a14df721f0945cb9b49ab5506",
          "topics": [
            "0xddf252ad1be2c89b69c2b068fc378daa952ba7f163c4a11628f55a4df523b3ef",
            "0x0000000000000000000000000000000000000000000000000000000000000000",
            "0x0000000000000000000000002f63f292c01a179e06f5275cfe3278c1efa7a1a2"
          ],
          "data": "0x00000000000000000000000000000000000000000000005150ae84a8cdf00000",
          "blockHash": "0x30f171318b4a3524ce78706098a0dc6bec9dd585f174beaec1adcac485469266",
          "blockNumber": "0x51baed",
          "blockTimestamp": "0x68e91eab",
          "transactionHash": "0x8cb5343c108caf35cfbd2447c85afda766a4c88e1b16a83d423427b9df7bb18f",
          "transactionIndex": "0x0",
          "logIndex": "0x0",
          "removed": false
        },
        {
          "address": "0xdab3157df4e5561a14df721f0945cb9b49ab5506",
          "topics": [
            "0x8a28e0854ec5cebc76dc276a5b565c3a3b0c140a254ed392854ee136cb258b69",
            "0x0000000000000000000000002f63f292c01a179e06f5275cfe3278c1efa7a1a2"
          ],
          "data": "0x00000000000000000000000000000000000000000000005150ae84a8cdf00000",
          "blockHash": "0x30f171318b4a3524ce78706098a0dc6bec9dd585f174beaec1adcac485469266",
          "blockNumber": "0x51baed",
          "blockTimestamp": "0x68e91eab",
          "transactionHash": "0x8cb5343c108caf35cfbd2447c85afda766a4c88e1b16a83d423427b9df7bb18f",
          "transactionIndex": "0x0",
          "logIndex": "0x1",
          "removed": false
        }
      ],
      "logsBloom": "0x00000000000000000000010000000000000000000000000000000000000000000000000000020000000000000000000000000000000000080000000000000000000000000000000000000008000000000000000400000000000000000000000000000000020000000000000100000800000000000000000000000010000000000000000000000000000000000000000000000000000000000000400000000800000000000000000800000000000000000000000000000000000000000000000000000002000000000000000000000000000000000000000000000000000020000000000000000000000000000000000000000000000004000000000000000000",
      "type": "0x2",
      "transactionHash": "0x8cb5343c108caf35cfbd2447c85afda766a4c88e1b16a83d423427b9df7bb18f",
      "transactionIndex": "0x0",
      "blockHash": "0x30f171318b4a3524ce78706098a0dc6bec9dd585f174beaec1adcac485469266",
      "blockNumber": "0x51baed",
      "gasUsed": "0xb0c2",
      "effectiveGasPrice": "0x8",
      "from": "0x2f63f292c01a179e06f5275cfe3278c1efa7a1a2",
      "to": "0xdab3157df4e5561a14df721f0945cb9b49ab5506",
      "contractAddress": null
    }
  ],
  "libraries": [],
  "pending": [],
  "returns": {},
  "timestamp": 1760108204266,
  "chain": 3735928814,
  "commit": "b6fb363"
}