{
  "transactions": [
    {
      "hash": "0xdd9864b84673384b0c569dd1a413ae6afc5948a394ca1064f7849413a5739bfb",
      "transactionType": "CREATE",
      "contractName": "OracleMock",
      "contractAddress": "0x0878af8baa013f7f6c4687391993b4206b9cde57",
      "function": null,
      "arguments": null,
      "transaction": {
        "from": "0x2f63f292c01a179e06f5275cfe3278c1efa7a1a2",
        "gas": "0x1ca0f",
        "value": "0x0",
        "input": "0x6080604052348015600e575f80fd5b5060aa8061001b5f395ff3fe6080604052348015600e575f80fd5b50600436106030575f3560e01c806391b7f5ed146034578063a035b1fe146045575b5f80fd5b6043603f366004605e565b5f55565b005b604c5f5481565b60405190815260200160405180910390f35b5f60208284031215606d575f80fd5b503591905056fea2646970667358221220ba1882a55251d27f795303067e2042e6f7112d753bf65da5badf76874086a5c164736f6c63430008180033",
        "nonce": "0x22",
        "chainId": "0xdeadbfee"
      },
      "additionalContracts": [],
      "isFixedGasLimit": false
    },
    {
      "hash": "0xf25bc791e3567d542764351be3a29a578f95b3d8989ec4d3ee20408fc83fadef",
      "transactionType": "CALL",
      "contractName": "OracleMock",
      "contractAddress": "0x0878af8baa013f7f6c4687391993b4206b9cde57",
      "function": "setPrice(uint256)",
      "arguments": [
        "50000000000000000000000000000000000000"
      ],
      "transaction": {
        "from": "0x2f63f292c01a179e06f5275cfe3278c1efa7a1a2",
        "to": "0x0878af8baa013f7f6c4687391993b4206b9cde57",
        "gas": "0xeb5d",
        "value": "0x0",
        "input": "0x91b7f5ed00000000000000000000000000000000259da6542d43623d04c5112000000000",
        "nonce": "0x23",
        "chainId": "0xdeadbfee"
      },
      "additionalContracts": [],
      "isFixedGasLimit": false
    }
  ],
  "receipts": [
    {
      "status": "0x1",
      "cumulativeGasUsed": "0x1605b",
      "logs": [],
      "logsBloom": "0x00000000000000000000000000000000000000000000000000000000000000000000000000000000000000000000000000000000000000000000000000000000000000000000000000000000000000000000000000000000000000000000000000000000000000000000000000000000000000000000000000000000000000000000000000000000000000000000000000000000000000000000000000000000000000000000000000000000000000000000000000000000000000000000000000000000000000000000000000000000000000000000000000000000000000000000000000000000000000000000000000000000000000000000000000000000",
      "type": "0x2",
      "transactionHash": "0xdd9864b84673384b0c569dd1a413ae6afc5948a394ca1064f7849413a5739bfb",
      "transactionIndex": "0x0",
      "blockHash": "0x216011e6e1f134069d7352e67bc21eedfba02df7dff95fb9f595b77a77df608e",
      "blockNumber": "0x51ba23",
      "gasUsed": "0x1605b",
      "effectiveGasPrice": "0x8",
      "from": "0x2f63f292c01a179e06f5275cfe3278c1efa7a1a2",
      "to": null,
      "contractAddress": "0x0878af8baa013f7f6c4687391993b4206b9cde57"
    },
    {
      "status": "0x1",
      "cumulativeGasUsed": "0xaa67",
      "logs": [],
      "logsBloom": "0x00000000000000000000000000000000000000000000000000000000000000000000000000000000000000000000000000000000000000000000000000000000000000000000000000000000000000000000000000000000000000000000000000000000000000000000000000000000000000000000000000000000000000000000000000000000000000000000000000000000000000000000000000000000000000000000000000000000000000000000000000000000000000000000000000000000000000000000000000000000000000000000000000000000000000000000000000000000000000000000000000000000000000000000000000000000",
      "type": "0x2",
      "transactionHash": "0xf25bc791e3567d542764351be3a29a578f95b3d8989ec4d3ee20408fc83fadef",
      "transactionIndex": "0x0",
      "blockHash": "0x38e99e859835835aa0cd7ffd9fe167d9aebabb90aa1752a26e3b5a29d5d63e8c",
      "blockNumber": "0x51ba25",
      "gasUsed": "0xaa67",
      "effectiveGasPrice": "0x8",
      "from": "0x2f63f292c01a179e06f5275cfe3278c1efa7a1a2",
      "to": "0x0878af8baa013f7f6c4687391993b4206b9cde57",
      "contractAddress": null
    }
  ],
  "libraries": [],
  "pending": [],
  "returns": {},
  "timestamp": 1760108104610,
  "chain": 3735928814,
  "commit": "b6fb363"
}