{
  "transactions": [
    {
      "hash": "0x72672676cdd6e5dcd4753f3a6cc83ce513da6eb76f67598d74fe33fcdb9de4f5",
      "transactionType": "CALL",
      "contractName": null,
      "contractAddress": "0xd011ee229e7459ba1ddd22631ef7bf528d424a14",
      "function": "createMarket((address,address,address,address,uint256))",
      "arguments": [
        "(0x1b909218c474807550209a7E83875289004Ae969, 0xB4A6E570425295856E688323BEfE9529AAC84688, 0xBD10202762e1a5A56cec413C59265da14396fa5C, 0x8C5dDCD3F601c91D1BF51c8ec26066010ACAbA7c, 860000000000000000)"
      ],
      "transaction": {
        "from": "0x2f63f292c01a179e06f5275cfe3278c1efa7a1a2",
        "to": "0xd011ee229e7459ba1ddd22631ef7bf528d424a14",
        "gas": "0x468df",
        "value": "0x0",
        "input": "0x8c1358a20000000000000000000000001b909218c474807550209a7e83875289004ae969000000000000000000000000b4a6e570425295856e688323befe9529aac84688000000000000000000000000bd10202762e1a5a56cec413c59265da14396fa5c0000000000000000000000008c5ddcd3f601c91d1bf51c8ec26066010acaba7c0000000000000000000000000000000000000000000000000bef55718ad60000",
        "nonce": "0x3f",
        "chainId": "0xaa36a7"
      },
      "additionalContracts": [],
      "isFixedGasLimit": false
    }
  ],
  "receipts": [
    {
      "status": "0x1",
      "cumulativeGasUsed": "0x26d15db",
      "logs": [
        {
          "address": "0xd011ee229e7459ba1ddd22631ef7bf528d424a14",
          "topics": [
            "0xac4b2400f169220b0c0afdde7a0b32e775ba727ea1cb30b35f935cdaab8683ac",
            "0x0761d379cc7d1212f71ad42bba304a80f1250baa0ad7a615a2501ac5f0e6ccb5"
          ],
          "data": "0x0000000000000000000000001b909218c474807550209a7e83875289004ae969000000000000000000000000b4a6e570425295856e688323befe9529aac84688000000000000000000000000bd10202762e1a5a56cec413c59265da14396fa5c0000000000000000000000008c5ddcd3f601c91d1bf51c8ec26066010acaba7c0000000000000000000000000000000000000000000000000bef55718ad60000",
          "blockHash": "0xed82506877670059eb75ef0a1b6c0f3e5af5c2fa2dcfbfc1c06690b00f411bcb",
          "blockNumber": "0x8cef3e",
          "blockTimestamp": "0x68cd7b84",
          "transactionHash": "0x72672676cdd6e5dcd4753f3a6cc83ce513da6eb76f67598d74fe33fcdb9de4f5",
          "transactionIndex": "0x7a",
          "logIndex": "0xb1",
          "removed": false
        },
        {
          "address": "0x8c5ddcd3f601c91d1bf51c8ec26066010acaba7c",
          "topics": [
            "0x7120161a7b3d31251e01294ab351ef15a41b91659a36032e4641bb89b121e321",
            "0x0761d379cc7d1212f71ad42bba304a80f1250baa0ad7a615a2501ac5f0e6ccb5"
          ],
          "data": "0x0000000000000000000000000000000000000000000000000000000012e687bf000000000000000000000000000000000000000000000000000000004b9a1eff",
          "blockHash": "0xed82506877670059eb75ef0a1b6c0f3e5af5c2fa2dcfbfc1c06690b00f411bcb",
          "blockNumber": "0x8cef3e",
          "blockTimestamp": "0x68cd7b84",
          "transactionHash": "0x72672676cdd6e5dcd4753f3a6cc83ce513da6eb76f67598d74fe33fcdb9de4f5",
          "transactionIndex": "0x7a",
          "logIndex": "0xb2",
          "removed": false
        }
      ],
      "logsBloom": "0x00000000000000000000000000000800000000000000000000000000000000010000000000000000000000000000010000000000000000000000000000804000000000000000000000000000000000000000000000000000000000000000000000040800000000000000000000000000000000000000000000200040000000000000000000000000080000000000000000000000000000000000000000000000000000000000000000000000000000000000000000000000000000000000000000000000000000000000000000000000100000000000000000000000000000002000000000000000000000000001000000000000000000000800000000000010",
      "type": "0x2",
      "transactionHash": "0x72672676cdd6e5dcd4753f3a6cc83ce513da6eb76f67598d74fe33fcdb9de4f5",
      "transactionIndex": "0x7a",
      "blockHash": "0xed82506877670059eb75ef0a1b6c0f3e5af5c2fa2dcfbfc1c06690b00f411bcb",
      "blockNumber": "0x8cef3e",
      "gasUsed": "0x303e1",
      "effectiveGasPrice": "0xf44c0",
      "from": "0x2f63f292c01a179e06f5275cfe3278c1efa7a1a2",
      "to": "0xd011ee229e7459ba1ddd22631ef7bf528d424a14",
      "contractAddress": null
    }
  ],
  "libraries": [],
  "pending": [],
  "returns": {},
  "timestamp": 1758296964,
  "chain": 11155111,
  "commit": "9fa8e1a"
}