{
  "transactions": [
    {
      "hash": "0xccae7f54be59f6ad0a71466beaaefb2539258af2d1a99eaef8dcdc21c1f1fd0b",
      "transactionType": "CALL",
      "contractName": null,
      "contractAddress": "0xc0337076098567e1f3d4637c63383cbfe3a50b73",
      "function": "setAnswer(int256,uint80,uint256)",
      "arguments": [
        "1000000000000",
        "0",
        "1758309312"
      ],
      "transaction": {
        "from": "0x2f63f292c01a179e06f5275cfe3278c1efa7a1a2",
        "to": "0xc0337076098567e1f3d4637c63383cbfe3a50b73",
        "gas": "0x2aded",
        "value": "0x0",
        "input": "0x2c7f190d000000000000000000000000000000000000000000000000000000e8d4a5100000000000000000000000000000000000000000000000000000000000000000000000000000000000000000000000000000000000000000000000000068cdabc0",
        "nonce": "0x48",
        "chainId": "0xaa36a7"
      },
      "additionalContracts": [],
      "isFixedGasLimit": false
    }
  ],
  "receipts": [
    {
      "status": "0x1",
      "cumulativeGasUsed": "0xe2d9f4",
      "logs": [
        {
          "address": "0xc0337076098567e1f3d4637c63383cbfe3a50b73",
          "topics": [
            "0x0559884fd3a460db3073b7fc896cc77986f16e378210ded43186175bf646fc5f",
            "0x000000000000000000000000000000000000000000000000000000e8d4a51000",
            "0x0000000000000000000000000000000000000000000000000000000000000002"
          ],
          "data": "0x0000000000000000000000000000000000000000000000000000000068cdabc0",
          "blockHash": "0xbbc584ea2b80e1274002bbd17b6bcf37cf1631947093b3f7c1bd4f95a87c8e99",
          "blockNumber": "0x8cf2fb",
          "blockTimestamp": "0x68cdabcc",
          "transactionHash": "0xccae7f54be59f6ad0a71466beaaefb2539258af2d1a99eaef8dcdc21c1f1fd0b",
          "transactionIndex": "0x61",
          "logIndex": "0x72",
          "removed": false
        }
      ],
      "logsBloom": "0x04000000000000000000000000000000010000000000000000000000000000000000000000000000000000000000000000000000000200000000000000000000000000000000000000000000000000000000000000000000000000000000000000000000000040000000000000000000000000000000000000000000000000000000000000000000000000000000000200000480400000000000000000000000000000000000000000000100000000000001000000000000000000000000000000040000000000000000000000000000000000000000000000000000000000000000000000000000000000000000000000000000008000000000000000000000",
      "type": "0x2",
      "transactionHash": "0xccae7f54be59f6ad0a71466beaaefb2539258af2d1a99eaef8dcdc21c1f1fd0b",
      "transactionIndex": "0x61",
      "blockHash": "0xbbc584ea2b80e1274002bbd17b6bcf37cf1631947093b3f7c1bd4f95a87c8e99",
      "blockNumber": "0x8cf2fb",
      "gasUsed": "0x1d503",
      "effectiveGasPrice": "0xf425a",
      "from": "0x2f63f292c01a179e06f5275cfe3278c1efa7a1a2",
      "to": "0xc0337076098567e1f3d4637c63383cbfe3a50b73",
      "contractAddress": null
    }
  ],
  "libraries": [],
  "pending": [],
  "returns": {},
  "timestamp": 1758309324,
  "chain": 11155111,
  "commit": "ef90f88"
}