{
  "transactions": [
    {
      "hash": "0xb252fcb5fe7104ea62731d6e0ef581e4f6f97829eef0f881a04d552fda7ee712",
      "transactionType": "CALL",
      "contractName": null,
      "contractAddress": "0x34f79f48cd22a0e7d697f203d3b007aaec0fef6c",
      "function": "acceptCap((address,address,address,address,uint256))",
      "arguments": [
        "(0x8a43989648F8b86349A4FE58Aa2470261e4CfdfA, 0xDAB3157dF4e5561a14DF721f0945Cb9B49Ab5506, 0x0878Af8BAa013f7f6C4687391993b4206b9cde57, 0x9F16Bf4ef111fC4cE7A75F9aB3a3e20CD9754c92, 800000000000000000)"
      ],
      "transaction": {
        "from": "0x2f63f292c01a179e06f5275cfe3278c1efa7a1a2",
        "to": "0x34f79f48cd22a0e7d697f203d3b007aaec0fef6c",
        "gas": "0x295cf",
        "value": "0x0",
        "input": "0x6fda38680000000000000000000000008a43989648f8b86349a4fe58aa2470261e4cfdfa000000000000000000000000dab3157df4e5561a14df721f0945cb9b49ab55060000000000000000000000000878af8baa013f7f6c4687391993b4206b9cde570000000000000000000000009f16bf4ef111fc4ce7a75f9ab3a3e20cd9754c920000000000000000000000000000000000000000000000000b1a2bc2ec500000",
        "nonce": "0x31",
        "chainId": "0xdeadbfee"
      },
      "additionalContracts": [],
      "isFixedGasLimit": false
    }
  ],
  "receipts": [
    {
      "status": "0x1",
      "cumulativeGasUsed": "0x1df24",
      "logs": [
        {
          "address": "0x34f79f48cd22a0e7d697f203d3b007aaec0fef6c",
          "topics": [
            "0x15c027cc4fd826d986cad358803439f7326d3aa4ed969ff90dbee4bc150f68e9"
          ],
          "data": "0x0000000000000000000000000000000000000000000000000000000000000000",
          "blockHash": "0x6e8e99243a0b6630232ebf02b9f53fe17a28a2fee989acf5847ae6711e10d2aa",
          "blockNumber": "0x51dcd1",
          "blockTimestamp": "0x68e92fb5",
          "transactionHash": "0xb252fcb5fe7104ea62731d6e0ef581e4f6f97829eef0f881a04d552fda7ee712",
          "transactionIndex": "0x0",
          "logIndex": "0x0",
          "removed": false
        },
        {
          "address": "0x34f79f48cd22a0e7d697f203d3b007aaec0fef6c",
          "topics": [
            "0xe0c2db6b54586be6d7d49943139fccf0dd315ba63e55364a76c73cd8fdba724d",
            "0x0000000000000000000000002f63f292c01a179e06f5275cfe3278c1efa7a1a2"
          ],
          "data": "0x0000000000000000000000000000000000000000000000000000000000000020000000000000000000000000000000000000000000000000000000000000000175f28b20c33eb6a853c3bb8fb6bae1b3902f6941ad4f1ebea4b245c00541e95d",
          "blockHash": "0x6e8e99243a0b6630232ebf02b9f53fe17a28a2fee989acf5847ae6711e10d2aa",
          "blockNumber": "0x51dcd1",
          "blockTimestamp": "0x68e92fb5",
          "transactionHash": "0xb252fcb5fe7104ea62731d6e0ef581e4f6f97829eef0f881a04d552fda7ee712",
          "transactionIndex": "0x0",
          "logIndex": "0x1",
          "removed": false
        },
        {
          "address": "0x34f79f48cd22a0e7d697f203d3b007aaec0fef6c",
          "topics": [
            "0xe86b6d3313d3098f4c5f689c935de8fde876a597c185def2cedab85efedac686",
            "0x0000000000000000000000002f63f292c01a179e06f5275cfe3278c1efa7a1a2",
            "0x75f28b20c33eb6a853c3bb8fb6bae1b3902f6941ad4f1ebea4b245c00541e95d"
          ],
          "data": "0x000000000000000000ffffffffffffffffffffffffffffffffffffffffffffff",
          "blockHash": "0x6e8e99243a0b6630232ebf02b9f53fe17a28a2fee989acf5847ae6711e10d2aa",
          "blockNumber": "0x51dcd1",
          "blockTimestamp": "0x68e92fb5",
          "transactionHash": "0xb252fcb5fe7104ea62731d6e0ef581e4f6f97829eef0f881a04d552fda7ee712",
          "transactionIndex": "0x0",
          "logIndex": "0x2",
          "removed": false
        }
      ],
      "logsBloom": "0x00000000000000000000000000000000000000000000000000000000000000000040082000020000000000000012000000000000000000000000000000000000000000000000000000000800000000000000000000000000000000000000000000000000000000000000000000000000004000000000000000001000000000000000000000008000000000000000000000000000000000000020000000000800000000000000000000000000000000000000100004000000000000000000000000000000004000000000000000000000000000000000000000000000000000000000000000000000000000000000040000000000000004000000000000010000",
      "type": "0x2",
      "transactionHash": "0xb252fcb5fe7104ea62731d6e0ef581e4f6f97829eef0f881a04d552fda7ee712",
      "transactionIndex": "0x0",
      "blockHash": "0x6e8e99243a0b6630232ebf02b9f53fe17a28a2fee989acf5847ae6711e10d2aa",
      "blockNumber": "0x51dcd1",
      "gasUsed": "0x1df24",
      "effectiveGasPrice": "0x8",
      "from": "0x2f63f292c01a179e06f5275cfe3278c1efa7a1a2",
      "to": "0x34f79f48cd22a0e7d697f203d3b007aaec0fef6c",
      "contractAddress": null
    }
  ],
  "libraries": [],
  "pending": [],
  "returns": {},
  "timestamp": 1760112565295,
  "chain": 3735928814,
  "commit": "b6fb363"
}